{
  "contractName": "NFTCollection",
  "abi": [
    {
      "inputs": [
        {
          "internalType": "string",
          "name": "baseURI",
          "type": "string"
        },
        {
          "internalType": "string",
          "name": "name",
          "type": "string"
        },
        {
          "internalType": "string",
          "name": "symbol",
          "type": "string"
        }
      ],
      "stateMutability": "nonpayable",
      "type": "constructor"
    },
    {
      "anonymous": false,
      "inputs": [
        {
          "indexed": true,
          "internalType": "address",
          "name": "owner",
          "type": "address"
        },
        {
          "indexed": true,
          "internalType": "address",
          "name": "approved",
          "type": "address"
        },
        {
          "indexed": true,
          "internalType": "uint256",
          "name": "tokenId",
          "type": "uint256"
        }
      ],
      "name": "Approval",
      "type": "event"
    },
    {
      "anonymous": false,
      "inputs": [
        {
          "indexed": true,
          "internalType": "address",
          "name": "owner",
          "type": "address"
        },
        {
          "indexed": true,
          "internalType": "address",
          "name": "operator",
          "type": "address"
        },
        {
          "indexed": false,
          "internalType": "bool",
          "name": "approved",
          "type": "bool"
        }
      ],
      "name": "ApprovalForAll",
      "type": "event"
    },
    {
      "anonymous": false,
      "inputs": [
        {
          "indexed": true,
          "internalType": "address",
          "name": "previousOwner",
          "type": "address"
        },
        {
          "indexed": true,
          "internalType": "address",
          "name": "newOwner",
          "type": "address"
        }
      ],
      "name": "OwnershipTransferred",
      "type": "event"
    },
    {
      "anonymous": false,
      "inputs": [
        {
          "indexed": true,
          "internalType": "address",
          "name": "from",
          "type": "address"
        },
        {
          "indexed": true,
          "internalType": "address",
          "name": "to",
          "type": "address"
        },
        {
          "indexed": true,
          "internalType": "uint256",
          "name": "tokenId",
          "type": "uint256"
        }
      ],
      "name": "Transfer",
      "type": "event"
    },
    {
      "inputs": [],
      "name": "MAX_PER_MINT",
      "outputs": [
        {
          "internalType": "uint256",
          "name": "",
          "type": "uint256"
        }
      ],
      "stateMutability": "view",
      "type": "function"
    },
    {
      "inputs": [],
      "name": "MAX_SUPPLY",
      "outputs": [
        {
          "internalType": "uint256",
          "name": "",
          "type": "uint256"
        }
      ],
      "stateMutability": "view",
      "type": "function"
    },
    {
      "inputs": [],
      "name": "PRICE",
      "outputs": [
        {
          "internalType": "uint256",
          "name": "",
          "type": "uint256"
        }
      ],
      "stateMutability": "view",
      "type": "function"
    },
    {
      "inputs": [
        {
          "internalType": "address",
          "name": "to",
          "type": "address"
        },
        {
          "internalType": "uint256",
          "name": "tokenId",
          "type": "uint256"
        }
      ],
      "name": "approve",
      "outputs": [],
      "stateMutability": "nonpayable",
      "type": "function"
    },
    {
      "inputs": [
        {
          "internalType": "address",
          "name": "owner",
          "type": "address"
        }
      ],
      "name": "balanceOf",
      "outputs": [
        {
          "internalType": "uint256",
          "name": "",
          "type": "uint256"
        }
      ],
      "stateMutability": "view",
      "type": "function"
    },
    {
      "inputs": [],
      "name": "baseTokenURI",
      "outputs": [
        {
          "internalType": "string",
          "name": "",
          "type": "string"
        }
      ],
      "stateMutability": "view",
      "type": "function"
    },
    {
      "inputs": [
        {
          "internalType": "uint256",
          "name": "tokenId",
          "type": "uint256"
        }
      ],
      "name": "getApproved",
      "outputs": [
        {
          "internalType": "address",
          "name": "",
          "type": "address"
        }
      ],
      "stateMutability": "view",
      "type": "function"
    },
    {
      "inputs": [
        {
          "internalType": "address",
          "name": "owner",
          "type": "address"
        },
        {
          "internalType": "address",
          "name": "operator",
          "type": "address"
        }
      ],
      "name": "isApprovedForAll",
      "outputs": [
        {
          "internalType": "bool",
          "name": "",
          "type": "bool"
        }
      ],
      "stateMutability": "view",
      "type": "function"
    },
    {
      "inputs": [],
      "name": "name",
      "outputs": [
        {
          "internalType": "string",
          "name": "",
          "type": "string"
        }
      ],
      "stateMutability": "view",
      "type": "function"
    },
    {
      "inputs": [],
      "name": "owner",
      "outputs": [
        {
          "internalType": "address",
          "name": "",
          "type": "address"
        }
      ],
      "stateMutability": "view",
      "type": "function"
    },
    {
      "inputs": [
        {
          "internalType": "uint256",
          "name": "tokenId",
          "type": "uint256"
        }
      ],
      "name": "ownerOf",
      "outputs": [
        {
          "internalType": "address",
          "name": "",
          "type": "address"
        }
      ],
      "stateMutability": "view",
      "type": "function"
    },
    {
      "inputs": [],
      "name": "renounceOwnership",
      "outputs": [],
      "stateMutability": "nonpayable",
      "type": "function"
    },
    {
      "inputs": [
        {
          "internalType": "address",
          "name": "from",
          "type": "address"
        },
        {
          "internalType": "address",
          "name": "to",
          "type": "address"
        },
        {
          "internalType": "uint256",
          "name": "tokenId",
          "type": "uint256"
        }
      ],
      "name": "safeTransferFrom",
      "outputs": [],
      "stateMutability": "nonpayable",
      "type": "function"
    },
    {
      "inputs": [
        {
          "internalType": "address",
          "name": "from",
          "type": "address"
        },
        {
          "internalType": "address",
          "name": "to",
          "type": "address"
        },
        {
          "internalType": "uint256",
          "name": "tokenId",
          "type": "uint256"
        },
        {
          "internalType": "bytes",
          "name": "_data",
          "type": "bytes"
        }
      ],
      "name": "safeTransferFrom",
      "outputs": [],
      "stateMutability": "nonpayable",
      "type": "function"
    },
    {
      "inputs": [
        {
          "internalType": "address",
          "name": "operator",
          "type": "address"
        },
        {
          "internalType": "bool",
          "name": "approved",
          "type": "bool"
        }
      ],
      "name": "setApprovalForAll",
      "outputs": [],
      "stateMutability": "nonpayable",
      "type": "function"
    },
    {
      "inputs": [
        {
          "internalType": "bytes4",
          "name": "interfaceId",
          "type": "bytes4"
        }
      ],
      "name": "supportsInterface",
      "outputs": [
        {
          "internalType": "bool",
          "name": "",
          "type": "bool"
        }
      ],
      "stateMutability": "view",
      "type": "function"
    },
    {
      "inputs": [],
      "name": "symbol",
      "outputs": [
        {
          "internalType": "string",
          "name": "",
          "type": "string"
        }
      ],
      "stateMutability": "view",
      "type": "function"
    },
    {
      "inputs": [
        {
          "internalType": "uint256",
          "name": "index",
          "type": "uint256"
        }
      ],
      "name": "tokenByIndex",
      "outputs": [
        {
          "internalType": "uint256",
          "name": "",
          "type": "uint256"
        }
      ],
      "stateMutability": "view",
      "type": "function"
    },
    {
      "inputs": [
        {
          "internalType": "address",
          "name": "owner",
          "type": "address"
        },
        {
          "internalType": "uint256",
          "name": "index",
          "type": "uint256"
        }
      ],
      "name": "tokenOfOwnerByIndex",
      "outputs": [
        {
          "internalType": "uint256",
          "name": "",
          "type": "uint256"
        }
      ],
      "stateMutability": "view",
      "type": "function"
    },
    {
      "inputs": [
        {
          "internalType": "uint256",
          "name": "tokenId",
          "type": "uint256"
        }
      ],
      "name": "tokenURI",
      "outputs": [
        {
          "internalType": "string",
          "name": "",
          "type": "string"
        }
      ],
      "stateMutability": "view",
      "type": "function"
    },
    {
      "inputs": [],
      "name": "totalSupply",
      "outputs": [
        {
          "internalType": "uint256",
          "name": "",
          "type": "uint256"
        }
      ],
      "stateMutability": "view",
      "type": "function"
    },
    {
      "inputs": [
        {
          "internalType": "address",
          "name": "from",
          "type": "address"
        },
        {
          "internalType": "address",
          "name": "to",
          "type": "address"
        },
        {
          "internalType": "uint256",
          "name": "tokenId",
          "type": "uint256"
        }
      ],
      "name": "transferFrom",
      "outputs": [],
      "stateMutability": "nonpayable",
      "type": "function"
    },
    {
      "inputs": [
        {
          "internalType": "address",
          "name": "newOwner",
          "type": "address"
        }
      ],
      "name": "transferOwnership",
      "outputs": [],
      "stateMutability": "nonpayable",
      "type": "function"
    },
    {
      "inputs": [
        {
          "internalType": "string",
          "name": "_baseTokenURI",
          "type": "string"
        }
      ],
      "name": "setBaseURI",
      "outputs": [],
      "stateMutability": "nonpayable",
      "type": "function"
    },
    {
      "inputs": [
        {
          "internalType": "uint256",
          "name": "_count",
          "type": "uint256"
        },
        {
          "internalType": "string[]",
          "name": "_cids",
          "type": "string[]"
        }
      ],
      "name": "mintNFTs",
      "outputs": [],
      "stateMutability": "payable",
      "type": "function"
    },
    {
      "inputs": [
        {
          "internalType": "uint256",
          "name": "_tokenId",
          "type": "uint256"
        }
      ],
      "name": "getTokenCID",
      "outputs": [
        {
          "internalType": "string",
          "name": "",
          "type": "string"
        }
      ],
      "stateMutability": "view",
      "type": "function"
    },
    {
      "inputs": [
        {
          "internalType": "address",
          "name": "_owner",
          "type": "address"
        }
      ],
      "name": "tokensOfOwner",
      "outputs": [
        {
          "internalType": "uint256[]",
          "name": "",
          "type": "uint256[]"
        }
      ],
      "stateMutability": "view",
      "type": "function"
    },
    {
      "inputs": [],
      "name": "withdraw",
      "outputs": [],
      "stateMutability": "payable",
      "type": "function"
    },
    {
      "inputs": [
        {
          "internalType": "uint256",
          "name": "_count",
          "type": "uint256"
        },
        {
          "internalType": "string[]",
          "name": "_cids",
          "type": "string[]"
        }
      ],
      "name": "reserveNFTs",
      "outputs": [],
      "stateMutability": "nonpayable",
      "type": "function"
    }
  ],
  "bytecode": "0x60806040523480156200001157600080fd5b5060405162004d1b38038062004d1b833981810160405281019062000037919062000497565b81818160009080519060200190620000519291906200024a565b5080600190805190602001906200006a9291906200024a565b5050506200008d62000081620000a760201b60201c565b620000af60201b60201c565b6200009e836200017560201b60201c565b50505062000637565b600033905090565b6000600a60009054906101000a900473ffffffffffffffffffffffffffffffffffffffff16905081600a60006101000a81548173ffffffffffffffffffffffffffffffffffffffff021916908373ffffffffffffffffffffffffffffffffffffffff1602179055508173ffffffffffffffffffffffffffffffffffffffff168173ffffffffffffffffffffffffffffffffffffffff167f8be0079c531659141344cd1fd0a4f28419497f9722a3daafe3b4186f6b6457e060405160405180910390a35050565b62000185620000a760201b60201c565b73ffffffffffffffffffffffffffffffffffffffff16620001ab6200022060201b60201c565b73ffffffffffffffffffffffffffffffffffffffff161462000204576040517f08c379a0000000000000000000000000000000000000000000000000000000008152600401620001fb90620005b1565b60405180910390fd5b80600c90805190602001906200021c9291906200024a565b5050565b6000600a60009054906101000a900473ffffffffffffffffffffffffffffffffffffffff16905090565b828054620002589062000602565b90600052602060002090601f0160209004810192826200027c5760008555620002c8565b82601f106200029757805160ff1916838001178555620002c8565b82800160010185558215620002c8579182015b82811115620002c7578251825591602001919060010190620002aa565b5b509050620002d79190620002db565b5090565b5b80821115620002f6576000816000905550600101620002dc565b5090565b6000604051905090565b600080fd5b600080fd5b600080fd5b600080fd5b6000601f19601f8301169050919050565b7f4e487b7100000000000000000000000000000000000000000000000000000000600052604160045260246000fd5b620003638262000318565b810181811067ffffffffffffffff8211171562000385576200038462000329565b5b80604052505050565b60006200039a620002fa565b9050620003a8828262000358565b919050565b600067ffffffffffffffff821115620003cb57620003ca62000329565b5b620003d68262000318565b9050602081019050919050565b60005b8381101562000403578082015181840152602081019050620003e6565b8381111562000413576000848401525b50505050565b6000620004306200042a84620003ad565b6200038e565b9050828152602081018484840111156200044f576200044e62000313565b5b6200045c848285620003e3565b509392505050565b600082601f8301126200047c576200047b6200030e565b5b81516200048e84826020860162000419565b91505092915050565b600080600060608486031215620004b357620004b262000304565b5b600084015167ffffffffffffffff811115620004d457620004d362000309565b5b620004e28682870162000464565b935050602084015167ffffffffffffffff81111562000506576200050562000309565b5b620005148682870162000464565b925050604084015167ffffffffffffffff81111562000538576200053762000309565b5b620005468682870162000464565b9150509250925092565b600082825260208201905092915050565b7f4f776e61626c653a2063616c6c6572206973206e6f7420746865206f776e6572600082015250565b60006200059960208362000550565b9150620005a68262000561565b602082019050919050565b60006020820190508181036000830152620005cc816200058a565b9050919050565b7f4e487b7100000000000000000000000000000000000000000000000000000000600052602260045260246000fd5b600060028204905060018216806200061b57607f821691505b602082108103620006315762000630620005d3565b5b50919050565b6146d480620006476000396000f3fe6080604052600436106101c25760003560e01c806355f804b3116100f757806395d89b4111610095578063c87b56dd11610064578063c87b56dd14610638578063d547cfb714610675578063e985e9c5146106a0578063f2fde38b146106dd576101c2565b806395d89b411461057e578063a22cb465146105a9578063b458f927146105d2578063b88d4fde1461060f576101c2565b8063715018a6116100d1578063715018a6146104d45780638462151c146104eb5780638d859f3e146105285780638da5cb5b14610553576101c2565b806355f804b3146104315780636352211e1461045a57806370a0823114610497576101c2565b806323b872dd116101645780633ccfd60b1161013e5780633ccfd60b146103a557806342842e0e146103af57806347c0474a146103d85780634f6ccce7146103f4576101c2565b806323b872dd146103145780632f745c591461033d57806332cb6b0c1461037a576101c2565b8063095ea7b3116101a0578063095ea7b31461026c57806309d42b30146102955780630fa4230d146102c057806318160ddd146102e9576101c2565b806301ffc9a7146101c757806306fdde0314610204578063081812fc1461022f575b600080fd5b3480156101d357600080fd5b506101ee60048036038101906101e99190612bf8565b610706565b6040516101fb9190612c40565b60405180910390f35b34801561021057600080fd5b50610219610780565b6040516102269190612cf4565b60405180910390f35b34801561023b57600080fd5b5061025660048036038101906102519190612d4c565b610812565b6040516102639190612dba565b60405180910390f35b34801561027857600080fd5b50610293600480360381019061028e9190612e01565b610897565b005b3480156102a157600080fd5b506102aa6109ae565b6040516102b79190612e50565b60405180910390f35b3480156102cc57600080fd5b506102e760048036038101906102e29190613086565b6109b3565b005b3480156102f557600080fd5b506102fe610b1c565b60405161030b9190612e50565b60405180910390f35b34801561032057600080fd5b5061033b600480360381019061033691906130e2565b610b29565b005b34801561034957600080fd5b50610364600480360381019061035f9190612e01565b610b89565b6040516103719190612e50565b60405180910390f35b34801561038657600080fd5b5061038f610c2e565b60405161039c9190612e50565b60405180910390f35b6103ad610c33565b005b3480156103bb57600080fd5b506103d660048036038101906103d191906130e2565b610da7565b005b6103f260048036038101906103ed9190613086565b610dc7565b005b34801561040057600080fd5b5061041b60048036038101906104169190612d4c565b610f60565b6040516104289190612e50565b60405180910390f35b34801561043d57600080fd5b5061045860048036038101906104539190613135565b610fd1565b005b34801561046657600080fd5b50610481600480360381019061047c9190612d4c565b611067565b60405161048e9190612dba565b60405180910390f35b3480156104a357600080fd5b506104be60048036038101906104b9919061317e565b611118565b6040516104cb9190612e50565b60405180910390f35b3480156104e057600080fd5b506104e96111cf565b005b3480156104f757600080fd5b50610512600480360381019061050d919061317e565b611257565b60405161051f9190613269565b60405180910390f35b34801561053457600080fd5b5061053d611305565b60405161054a9190612e50565b60405180910390f35b34801561055f57600080fd5b5061056861130f565b6040516105759190612dba565b60405180910390f35b34801561058a57600080fd5b50610593611339565b6040516105a09190612cf4565b60405180910390f35b3480156105b557600080fd5b506105d060048036038101906105cb91906132b7565b6113cb565b005b3480156105de57600080fd5b506105f960048036038101906105f49190612d4c565b6113e1565b6040516106069190612cf4565b60405180910390f35b34801561061b57600080fd5b5061063660048036038101906106319190613398565b6114ce565b005b34801561064457600080fd5b5061065f600480360381019061065a9190612d4c565b611530565b60405161066c9190612cf4565b60405180910390f35b34801561068157600080fd5b5061068a6115d7565b6040516106979190612cf4565b60405180910390f35b3480156106ac57600080fd5b506106c760048036038101906106c2919061341b565b611665565b6040516106d49190612c40565b60405180910390f35b3480156106e957600080fd5b5061070460048036038101906106ff919061317e565b6116f9565b005b60007f780e9d63000000000000000000000000000000000000000000000000000000007bffffffffffffffffffffffffffffffffffffffffffffffffffffffff1916827bffffffffffffffffffffffffffffffffffffffffffffffffffffffff191614806107795750610778826117f0565b5b9050919050565b60606000805461078f9061348a565b80601f01602080910402602001604051908101604052809291908181526020018280546107bb9061348a565b80156108085780601f106107dd57610100808354040283529160200191610808565b820191906000526020600020905b8154815290600101906020018083116107eb57829003601f168201915b5050505050905090565b600061081d826118d2565b61085c576040517f08c379a00000000000000000000000000000000000000000000000000000000081526004016108539061352d565b60405180910390fd5b6004600083815260200190815260200160002060009054906101000a900473ffffffffffffffffffffffffffffffffffffffff169050919050565b60006108a282611067565b90508073ffffffffffffffffffffffffffffffffffffffff168373ffffffffffffffffffffffffffffffffffffffff1603610912576040517f08c379a0000000000000000000000000000000000000000000000000000000008152600401610909906135bf565b60405180910390fd5b8073ffffffffffffffffffffffffffffffffffffffff1661093161193e565b73ffffffffffffffffffffffffffffffffffffffff161480610960575061095f8161095a61193e565b611665565b5b61099f576040517f08c379a000000000000000000000000000000000000000000000000000000000815260040161099690613651565b60405180910390fd5b6109a98383611946565b505050565b606481565b6109bb61193e565b73ffffffffffffffffffffffffffffffffffffffff166109d961130f565b73ffffffffffffffffffffffffffffffffffffffff1614610a2f576040517f08c379a0000000000000000000000000000000000000000000000000000000008152600401610a26906136bd565b60405180910390fd5b6000610a3b600b6119ff565b90506064610a528483611a0d90919063ffffffff16565b10610a92576040517f08c379a0000000000000000000000000000000000000000000000000000000008152600401610a8990613729565b60405180910390fd5b81518314610ad5576040517f08c379a0000000000000000000000000000000000000000000000000000000008152600401610acc906137bb565b60405180910390fd5b60005b83811015610b1657610b03838281518110610af657610af56137db565b5b6020026020010151611a23565b8080610b0e90613839565b915050610ad8565b50505050565b6000600880549050905090565b610b3a610b3461193e565b82611a71565b610b79576040517f08c379a0000000000000000000000000000000000000000000000000000000008152600401610b70906138f3565b60405180910390fd5b610b84838383611b4f565b505050565b6000610b9483611118565b8210610bd5576040517f08c379a0000000000000000000000000000000000000000000000000000000008152600401610bcc90613985565b60405180910390fd5b600660008473ffffffffffffffffffffffffffffffffffffffff1673ffffffffffffffffffffffffffffffffffffffff168152602001908152602001600020600083815260200190815260200160002054905092915050565b606481565b610c3b61193e565b73ffffffffffffffffffffffffffffffffffffffff16610c5961130f565b73ffffffffffffffffffffffffffffffffffffffff1614610caf576040517f08c379a0000000000000000000000000000000000000000000000000000000008152600401610ca6906136bd565b60405180910390fd5b600047905060008111610cf7576040517f08c379a0000000000000000000000000000000000000000000000000000000008152600401610cee906139f1565b60405180910390fd5b60003373ffffffffffffffffffffffffffffffffffffffff1682604051610d1d90613a42565b60006040518083038185875af1925050503d8060008114610d5a576040519150601f19603f3d011682016040523d82523d6000602084013e610d5f565b606091505b5050905080610da3576040517f08c379a0000000000000000000000000000000000000000000000000000000008152600401610d9a90613aa3565b60405180910390fd5b5050565b610dc2838383604051806020016040528060008152506114ce565b505050565b6000610dd3600b6119ff565b90506064610dea8483611a0d90919063ffffffff16565b1115610e2b576040517f08c379a0000000000000000000000000000000000000000000000000000000008152600401610e2290613b0f565b60405180910390fd5b600083118015610e3c575060648311155b610e7b576040517f08c379a0000000000000000000000000000000000000000000000000000000008152600401610e7290613ba1565b60405180910390fd5b610e94836509184e72a000611db590919063ffffffff16565b341015610ed6576040517f08c379a0000000000000000000000000000000000000000000000000000000008152600401610ecd90613c33565b60405180910390fd5b81518314610f19576040517f08c379a0000000000000000000000000000000000000000000000000000000008152600401610f1090613cc5565b60405180910390fd5b60005b83811015610f5a57610f47838281518110610f3a57610f396137db565b5b6020026020010151611a23565b8080610f5290613839565b915050610f1c565b50505050565b6000610f6a610b1c565b8210610fab576040517f08c379a0000000000000000000000000000000000000000000000000000000008152600401610fa290613d57565b60405180910390fd5b60088281548110610fbf57610fbe6137db565b5b90600052602060002001549050919050565b610fd961193e565b73ffffffffffffffffffffffffffffffffffffffff16610ff761130f565b73ffffffffffffffffffffffffffffffffffffffff161461104d576040517f08c379a0000000000000000000000000000000000000000000000000000000008152600401611044906136bd565b60405180910390fd5b80600c9080519060200190611063929190612ae9565b5050565b6000806002600084815260200190815260200160002060009054906101000a900473ffffffffffffffffffffffffffffffffffffffff169050600073ffffffffffffffffffffffffffffffffffffffff168173ffffffffffffffffffffffffffffffffffffffff160361110f576040517f08c379a000000000000000000000000000000000000000000000000000000000815260040161110690613de9565b60405180910390fd5b80915050919050565b60008073ffffffffffffffffffffffffffffffffffffffff168273ffffffffffffffffffffffffffffffffffffffff1603611188576040517f08c379a000000000000000000000000000000000000000000000000000000000815260040161117f90613e7b565b60405180910390fd5b600360008373ffffffffffffffffffffffffffffffffffffffff1673ffffffffffffffffffffffffffffffffffffffff168152602001908152602001600020549050919050565b6111d761193e565b73ffffffffffffffffffffffffffffffffffffffff166111f561130f565b73ffffffffffffffffffffffffffffffffffffffff161461124b576040517f08c379a0000000000000000000000000000000000000000000000000000000008152600401611242906136bd565b60405180910390fd5b6112556000611dcb565b565b6060600061126483611118565b905060008167ffffffffffffffff81111561128257611281612e70565b5b6040519080825280602002602001820160405280156112b05781602001602082028036833780820191505090505b50905060005b828110156112fa576112c88582610b89565b8282815181106112db576112da6137db565b5b60200260200101818152505080806112f290613839565b9150506112b6565b508092505050919050565b6509184e72a00081565b6000600a60009054906101000a900473ffffffffffffffffffffffffffffffffffffffff16905090565b6060600180546113489061348a565b80601f01602080910402602001604051908101604052809291908181526020018280546113749061348a565b80156113c15780601f10611396576101008083540402835291602001916113c1565b820191906000526020600020905b8154815290600101906020018083116113a457829003601f168201915b5050505050905090565b6113dd6113d661193e565b8383611e91565b5050565b60606113ec826118d2565b61142b576040517f08c379a000000000000000000000000000000000000000000000000000000000815260040161142290613ee7565b60405180910390fd5b600d600083815260200190815260200160002080546114499061348a565b80601f01602080910402602001604051908101604052809291908181526020018280546114759061348a565b80156114c25780601f10611497576101008083540402835291602001916114c2565b820191906000526020600020905b8154815290600101906020018083116114a557829003601f168201915b50505050509050919050565b6114df6114d961193e565b83611a71565b61151e576040517f08c379a0000000000000000000000000000000000000000000000000000000008152600401611515906138f3565b60405180910390fd5b61152a84848484611ffd565b50505050565b606061153b826118d2565b61157a576040517f08c379a000000000000000000000000000000000000000000000000000000000815260040161157190613f79565b60405180910390fd5b6000611584612059565b905060008151116115a457604051806020016040528060008152506115cf565b806115ae846120eb565b6040516020016115bf929190613fd5565b6040516020818303038152906040525b915050919050565b600c80546115e49061348a565b80601f01602080910402602001604051908101604052809291908181526020018280546116109061348a565b801561165d5780601f106116325761010080835404028352916020019161165d565b820191906000526020600020905b81548152906001019060200180831161164057829003601f168201915b505050505081565b6000600560008473ffffffffffffffffffffffffffffffffffffffff1673ffffffffffffffffffffffffffffffffffffffff16815260200190815260200160002060008373ffffffffffffffffffffffffffffffffffffffff1673ffffffffffffffffffffffffffffffffffffffff16815260200190815260200160002060009054906101000a900460ff16905092915050565b61170161193e565b73ffffffffffffffffffffffffffffffffffffffff1661171f61130f565b73ffffffffffffffffffffffffffffffffffffffff1614611775576040517f08c379a000000000000000000000000000000000000000000000000000000000815260040161176c906136bd565b60405180910390fd5b600073ffffffffffffffffffffffffffffffffffffffff168173ffffffffffffffffffffffffffffffffffffffff16036117e4576040517f08c379a00000000000000000000000000000000000000000000000000000000081526004016117db9061406b565b60405180910390fd5b6117ed81611dcb565b50565b60007f80ac58cd000000000000000000000000000000000000000000000000000000007bffffffffffffffffffffffffffffffffffffffffffffffffffffffff1916827bffffffffffffffffffffffffffffffffffffffffffffffffffffffff191614806118bb57507f5b5e139f000000000000000000000000000000000000000000000000000000007bffffffffffffffffffffffffffffffffffffffffffffffffffffffff1916827bffffffffffffffffffffffffffffffffffffffffffffffffffffffff1916145b806118cb57506118ca8261224b565b5b9050919050565b60008073ffffffffffffffffffffffffffffffffffffffff166002600084815260200190815260200160002060009054906101000a900473ffffffffffffffffffffffffffffffffffffffff1673ffffffffffffffffffffffffffffffffffffffff1614159050919050565b600033905090565b816004600083815260200190815260200160002060006101000a81548173ffffffffffffffffffffffffffffffffffffffff021916908373ffffffffffffffffffffffffffffffffffffffff160217905550808273ffffffffffffffffffffffffffffffffffffffff166119b983611067565b73ffffffffffffffffffffffffffffffffffffffff167f8c5be1e5ebec7d5bd14f71427d1e84f3dd0314c0f7b2291e5b200ac8c7c3b92560405160405180910390a45050565b600081600001549050919050565b60008183611a1b919061408b565b905092915050565b6000611a2f600b6119ff565b9050611a3b33826122b5565b81600d60008381526020019081526020016000209080519060200190611a62929190612ae9565b50611a6d600b6122d3565b5050565b6000611a7c826118d2565b611abb576040517f08c379a0000000000000000000000000000000000000000000000000000000008152600401611ab290614153565b60405180910390fd5b6000611ac683611067565b90508073ffffffffffffffffffffffffffffffffffffffff168473ffffffffffffffffffffffffffffffffffffffff161480611b085750611b078185611665565b5b80611b4657508373ffffffffffffffffffffffffffffffffffffffff16611b2e84610812565b73ffffffffffffffffffffffffffffffffffffffff16145b91505092915050565b8273ffffffffffffffffffffffffffffffffffffffff16611b6f82611067565b73ffffffffffffffffffffffffffffffffffffffff1614611bc5576040517f08c379a0000000000000000000000000000000000000000000000000000000008152600401611bbc906141e5565b60405180910390fd5b600073ffffffffffffffffffffffffffffffffffffffff168273ffffffffffffffffffffffffffffffffffffffff1603611c34576040517f08c379a0000000000000000000000000000000000000000000000000000000008152600401611c2b90614277565b60405180910390fd5b611c3f8383836122e9565b611c4a600082611946565b6001600360008573ffffffffffffffffffffffffffffffffffffffff1673ffffffffffffffffffffffffffffffffffffffff1681526020019081526020016000206000828254611c9a9190614297565b925050819055506001600360008473ffffffffffffffffffffffffffffffffffffffff1673ffffffffffffffffffffffffffffffffffffffff1681526020019081526020016000206000828254611cf1919061408b565b92505081905550816002600083815260200190815260200160002060006101000a81548173ffffffffffffffffffffffffffffffffffffffff021916908373ffffffffffffffffffffffffffffffffffffffff160217905550808273ffffffffffffffffffffffffffffffffffffffff168473ffffffffffffffffffffffffffffffffffffffff167fddf252ad1be2c89b69c2b068fc378daa952ba7f163c4a11628f55a4df523b3ef60405160405180910390a4611db08383836123fb565b505050565b60008183611dc391906142cb565b905092915050565b6000600a60009054906101000a900473ffffffffffffffffffffffffffffffffffffffff16905081600a60006101000a81548173ffffffffffffffffffffffffffffffffffffffff021916908373ffffffffffffffffffffffffffffffffffffffff1602179055508173ffffffffffffffffffffffffffffffffffffffff168173ffffffffffffffffffffffffffffffffffffffff167f8be0079c531659141344cd1fd0a4f28419497f9722a3daafe3b4186f6b6457e060405160405180910390a35050565b8173ffffffffffffffffffffffffffffffffffffffff168373ffffffffffffffffffffffffffffffffffffffff1603611eff576040517f08c379a0000000000000000000000000000000000000000000000000000000008152600401611ef690614371565b60405180910390fd5b80600560008573ffffffffffffffffffffffffffffffffffffffff1673ffffffffffffffffffffffffffffffffffffffff16815260200190815260200160002060008473ffffffffffffffffffffffffffffffffffffffff1673ffffffffffffffffffffffffffffffffffffffff16815260200190815260200160002060006101000a81548160ff0219169083151502179055508173ffffffffffffffffffffffffffffffffffffffff168373ffffffffffffffffffffffffffffffffffffffff167f17307eab39ab6107e8899845ad3d59bd9653f200f220920489ca2b5937696c3183604051611ff09190612c40565b60405180910390a3505050565b612008848484611b4f565b61201484848484612400565b612053576040517f08c379a000000000000000000000000000000000000000000000000000000000815260040161204a90614403565b60405180910390fd5b50505050565b6060600c80546120689061348a565b80601f01602080910402602001604051908101604052809291908181526020018280546120949061348a565b80156120e15780601f106120b6576101008083540402835291602001916120e1565b820191906000526020600020905b8154815290600101906020018083116120c457829003601f168201915b5050505050905090565b606060008203612132576040518060400160405280600181526020017f30000000000000000000000000000000000000000000000000000000000000008152509050612246565b600082905060005b6000821461216457808061214d90613839565b915050600a8261215d9190614452565b915061213a565b60008167ffffffffffffffff8111156121805761217f612e70565b5b6040519080825280601f01601f1916602001820160405280156121b25781602001600182028036833780820191505090505b5090505b6000851461223f576001826121cb9190614297565b9150600a856121da9190614483565b60306121e6919061408b565b60f81b8183815181106121fc576121fb6137db565b5b60200101907effffffffffffffffffffffffffffffffffffffffffffffffffffffffffffff1916908160001a905350600a856122389190614452565b94506121b6565b8093505050505b919050565b60007f01ffc9a7000000000000000000000000000000000000000000000000000000007bffffffffffffffffffffffffffffffffffffffffffffffffffffffff1916827bffffffffffffffffffffffffffffffffffffffffffffffffffffffff1916149050919050565b6122cf828260405180602001604052806000815250612587565b5050565b6001816000016000828254019250508190555050565b6122f48383836125e2565b600073ffffffffffffffffffffffffffffffffffffffff168373ffffffffffffffffffffffffffffffffffffffff160361233657612331816125e7565b612375565b8173ffffffffffffffffffffffffffffffffffffffff168373ffffffffffffffffffffffffffffffffffffffff1614612374576123738382612630565b5b5b600073ffffffffffffffffffffffffffffffffffffffff168273ffffffffffffffffffffffffffffffffffffffff16036123b7576123b28161279d565b6123f6565b8273ffffffffffffffffffffffffffffffffffffffff168273ffffffffffffffffffffffffffffffffffffffff16146123f5576123f4828261286e565b5b5b505050565b505050565b60006124218473ffffffffffffffffffffffffffffffffffffffff166128ed565b1561257a578373ffffffffffffffffffffffffffffffffffffffff1663150b7a0261244a61193e565b8786866040518563ffffffff1660e01b815260040161246c9493929190614509565b6020604051808303816000875af19250505080156124a857506040513d601f19601f820116820180604052508101906124a5919061456a565b60015b61252a573d80600081146124d8576040519150601f19603f3d011682016040523d82523d6000602084013e6124dd565b606091505b506000815103612522576040517f08c379a000000000000000000000000000000000000000000000000000000000815260040161251990614403565b60405180910390fd5b805181602001fd5b63150b7a0260e01b7bffffffffffffffffffffffffffffffffffffffffffffffffffffffff1916817bffffffffffffffffffffffffffffffffffffffffffffffffffffffff19161491505061257f565b600190505b949350505050565b6125918383612910565b61259e6000848484612400565b6125dd576040517f08c379a00000000000000000000000000000000000000000000000000000000081526004016125d490614403565b60405180910390fd5b505050565b505050565b6008805490506009600083815260200190815260200160002081905550600881908060018154018082558091505060019003906000526020600020016000909190919091505550565b6000600161263d84611118565b6126479190614297565b905060006007600084815260200190815260200160002054905081811461272c576000600660008673ffffffffffffffffffffffffffffffffffffffff1673ffffffffffffffffffffffffffffffffffffffff168152602001908152602001600020600084815260200190815260200160002054905080600660008773ffffffffffffffffffffffffffffffffffffffff1673ffffffffffffffffffffffffffffffffffffffff168152602001908152602001600020600084815260200190815260200160002081905550816007600083815260200190815260200160002081905550505b6007600084815260200190815260200160002060009055600660008573ffffffffffffffffffffffffffffffffffffffff1673ffffffffffffffffffffffffffffffffffffffff16815260200190815260200160002060008381526020019081526020016000206000905550505050565b600060016008805490506127b19190614297565b90506000600960008481526020019081526020016000205490506000600883815481106127e1576127e06137db565b5b906000526020600020015490508060088381548110612803576128026137db565b5b90600052602060002001819055508160096000838152602001908152602001600020819055506009600085815260200190815260200160002060009055600880548061285257612851614597565b5b6001900381819060005260206000200160009055905550505050565b600061287983611118565b905081600660008573ffffffffffffffffffffffffffffffffffffffff1673ffffffffffffffffffffffffffffffffffffffff168152602001908152602001600020600083815260200190815260200160002081905550806007600084815260200190815260200160002081905550505050565b6000808273ffffffffffffffffffffffffffffffffffffffff163b119050919050565b600073ffffffffffffffffffffffffffffffffffffffff168273ffffffffffffffffffffffffffffffffffffffff160361297f576040517f08c379a000000000000000000000000000000000000000000000000000000000815260040161297690614612565b60405180910390fd5b612988816118d2565b156129c8576040517f08c379a00000000000000000000000000000000000000000000000000000000081526004016129bf9061467e565b60405180910390fd5b6129d4600083836122e9565b6001600360008473ffffffffffffffffffffffffffffffffffffffff1673ffffffffffffffffffffffffffffffffffffffff1681526020019081526020016000206000828254612a24919061408b565b92505081905550816002600083815260200190815260200160002060006101000a81548173ffffffffffffffffffffffffffffffffffffffff021916908373ffffffffffffffffffffffffffffffffffffffff160217905550808273ffffffffffffffffffffffffffffffffffffffff16600073ffffffffffffffffffffffffffffffffffffffff167fddf252ad1be2c89b69c2b068fc378daa952ba7f163c4a11628f55a4df523b3ef60405160405180910390a4612ae5600083836123fb565b5050565b828054612af59061348a565b90600052602060002090601f016020900481019282612b175760008555612b5e565b82601f10612b3057805160ff1916838001178555612b5e565b82800160010185558215612b5e579182015b82811115612b5d578251825591602001919060010190612b42565b5b509050612b6b9190612b6f565b5090565b5b80821115612b88576000816000905550600101612b70565b5090565b6000604051905090565b600080fd5b600080fd5b60007fffffffff0000000000000000000000000000000000000000000000000000000082169050919050565b612bd581612ba0565b8114612be057600080fd5b50565b600081359050612bf281612bcc565b92915050565b600060208284031215612c0e57612c0d612b96565b5b6000612c1c84828501612be3565b91505092915050565b60008115159050919050565b612c3a81612c25565b82525050565b6000602082019050612c556000830184612c31565b92915050565b600081519050919050565b600082825260208201905092915050565b60005b83811015612c95578082015181840152602081019050612c7a565b83811115612ca4576000848401525b50505050565b6000601f19601f8301169050919050565b6000612cc682612c5b565b612cd08185612c66565b9350612ce0818560208601612c77565b612ce981612caa565b840191505092915050565b60006020820190508181036000830152612d0e8184612cbb565b905092915050565b6000819050919050565b612d2981612d16565b8114612d3457600080fd5b50565b600081359050612d4681612d20565b92915050565b600060208284031215612d6257612d61612b96565b5b6000612d7084828501612d37565b91505092915050565b600073ffffffffffffffffffffffffffffffffffffffff82169050919050565b6000612da482612d79565b9050919050565b612db481612d99565b82525050565b6000602082019050612dcf6000830184612dab565b92915050565b612dde81612d99565b8114612de957600080fd5b50565b600081359050612dfb81612dd5565b92915050565b60008060408385031215612e1857612e17612b96565b5b6000612e2685828601612dec565b9250506020612e3785828601612d37565b9150509250929050565b612e4a81612d16565b82525050565b6000602082019050612e656000830184612e41565b92915050565b600080fd5b7f4e487b7100000000000000000000000000000000000000000000000000000000600052604160045260246000fd5b612ea882612caa565b810181811067ffffffffffffffff82111715612ec757612ec6612e70565b5b80604052505050565b6000612eda612b8c565b9050612ee68282612e9f565b919050565b600067ffffffffffffffff821115612f0657612f05612e70565b5b602082029050602081019050919050565b600080fd5b600080fd5b600067ffffffffffffffff821115612f3c57612f3b612e70565b5b612f4582612caa565b9050602081019050919050565b82818337600083830152505050565b6000612f74612f6f84612f21565b612ed0565b905082815260208101848484011115612f9057612f8f612f1c565b5b612f9b848285612f52565b509392505050565b600082601f830112612fb857612fb7612e6b565b5b8135612fc8848260208601612f61565b91505092915050565b6000612fe4612fdf84612eeb565b612ed0565b9050808382526020820190506020840283018581111561300757613006612f17565b5b835b8181101561304e57803567ffffffffffffffff81111561302c5761302b612e6b565b5b8086016130398982612fa3565b85526020850194505050602081019050613009565b5050509392505050565b600082601f83011261306d5761306c612e6b565b5b813561307d848260208601612fd1565b91505092915050565b6000806040838503121561309d5761309c612b96565b5b60006130ab85828601612d37565b925050602083013567ffffffffffffffff8111156130cc576130cb612b9b565b5b6130d885828601613058565b9150509250929050565b6000806000606084860312156130fb576130fa612b96565b5b600061310986828701612dec565b935050602061311a86828701612dec565b925050604061312b86828701612d37565b9150509250925092565b60006020828403121561314b5761314a612b96565b5b600082013567ffffffffffffffff81111561316957613168612b9b565b5b61317584828501612fa3565b91505092915050565b60006020828403121561319457613193612b96565b5b60006131a284828501612dec565b91505092915050565b600081519050919050565b600082825260208201905092915050565b6000819050602082019050919050565b6131e081612d16565b82525050565b60006131f283836131d7565b60208301905092915050565b6000602082019050919050565b6000613216826131ab565b61322081856131b6565b935061322b836131c7565b8060005b8381101561325c57815161324388826131e6565b975061324e836131fe565b92505060018101905061322f565b5085935050505092915050565b60006020820190508181036000830152613283818461320b565b905092915050565b61329481612c25565b811461329f57600080fd5b50565b6000813590506132b18161328b565b92915050565b600080604083850312156132ce576132cd612b96565b5b60006132dc85828601612dec565b92505060206132ed858286016132a2565b9150509250929050565b600067ffffffffffffffff82111561331257613311612e70565b5b61331b82612caa565b9050602081019050919050565b600061333b613336846132f7565b612ed0565b90508281526020810184848401111561335757613356612f1c565b5b613362848285612f52565b509392505050565b600082601f83011261337f5761337e612e6b565b5b813561338f848260208601613328565b91505092915050565b600080600080608085870312156133b2576133b1612b96565b5b60006133c087828801612dec565b94505060206133d187828801612dec565b93505060406133e287828801612d37565b925050606085013567ffffffffffffffff81111561340357613402612b9b565b5b61340f8782880161336a565b91505092959194509250565b6000806040838503121561343257613431612b96565b5b600061344085828601612dec565b925050602061345185828601612dec565b9150509250929050565b7f4e487b7100000000000000000000000000000000000000000000000000000000600052602260045260246000fd5b600060028204905060018216806134a257607f821691505b6020821081036134b5576134b461345b565b5b50919050565b7f4552433732313a20617070726f76656420717565727920666f72206e6f6e657860008201527f697374656e7420746f6b656e0000000000000000000000000000000000000000602082015250565b6000613517602c83612c66565b9150613522826134bb565b604082019050919050565b600060208201905081810360008301526135468161350a565b9050919050565b7f4552433732313a20617070726f76616c20746f2063757272656e74206f776e6560008201527f7200000000000000000000000000000000000000000000000000000000000000602082015250565b60006135a9602183612c66565b91506135b48261354d565b604082019050919050565b600060208201905081810360008301526135d88161359c565b9050919050565b7f4552433732313a20617070726f76652063616c6c6572206973206e6f74206f7760008201527f6e6572206e6f7220617070726f76656420666f7220616c6c0000000000000000602082015250565b600061363b603883612c66565b9150613646826135df565b604082019050919050565b6000602082019050818103600083015261366a8161362e565b9050919050565b7f4f776e61626c653a2063616c6c6572206973206e6f7420746865206f776e6572600082015250565b60006136a7602083612c66565b91506136b282613671565b602082019050919050565b600060208201905081810360008301526136d68161369a565b9050919050565b7f4e6f7420656e6f756768204e465473206c65667420746f207265736572766500600082015250565b6000613713601f83612c66565b915061371e826136dd565b602082019050919050565b6000602082019050818103600083015261374281613706565b9050919050565b7f434944206172726179206c656e677468206d757374206d61746368207265736560008201527f72766520636f756e740000000000000000000000000000000000000000000000602082015250565b60006137a5602983612c66565b91506137b082613749565b604082019050919050565b600060208201905081810360008301526137d481613798565b9050919050565b7f4e487b7100000000000000000000000000000000000000000000000000000000600052603260045260246000fd5b7f4e487b7100000000000000000000000000000000000000000000000000000000600052601160045260246000fd5b600061384482612d16565b91507fffffffffffffffffffffffffffffffffffffffffffffffffffffffffffffffff82036138765761387561380a565b5b600182019050919050565b7f4552433732313a207472616e736665722063616c6c6572206973206e6f74206f60008201527f776e6572206e6f7220617070726f766564000000000000000000000000000000602082015250565b60006138dd603183612c66565b91506138e882613881565b604082019050919050565b6000602082019050818103600083015261390c816138d0565b9050919050565b7f455243373231456e756d657261626c653a206f776e657220696e646578206f7560008201527f74206f6620626f756e6473000000000000000000000000000000000000000000602082015250565b600061396f602b83612c66565b915061397a82613913565b604082019050919050565b6000602082019050818103600083015261399e81613962565b9050919050565b7f4e6f206574686572206c65667420746f20776974686472617700000000000000600082015250565b60006139db601983612c66565b91506139e6826139a5565b602082019050919050565b60006020820190508181036000830152613a0a816139ce565b9050919050565b600081905092915050565b50565b6000613a2c600083613a11565b9150613a3782613a1c565b600082019050919050565b6000613a4d82613a1f565b9150819050919050565b7f5472616e73666572206661696c65642e00000000000000000000000000000000600082015250565b6000613a8d601083612c66565b9150613a9882613a57565b602082019050919050565b60006020820190508181036000830152613abc81613a80565b9050919050565b7f5468697320636f6c6c656374696f6e20697320736f6c64206f75742100000000600082015250565b6000613af9601c83612c66565b9150613b0482613ac3565b602082019050919050565b60006020820190508181036000830152613b2881613aec565b9050919050565b7f596f75206861766520726563656976656420746865206d6178696d756d20616d60008201527f6f756e74206f66204e46547320616c6c6f7765642e0000000000000000000000602082015250565b6000613b8b603583612c66565b9150613b9682613b2f565b604082019050919050565b60006020820190508181036000830152613bba81613b7e565b9050919050565b7f4e6f7420656e6f75676820657468657220746f207075726368617365204e465460008201527f732e000000000000000000000000000000000000000000000000000000000000602082015250565b6000613c1d602283612c66565b9150613c2882613bc1565b604082019050919050565b60006020820190508181036000830152613c4c81613c10565b9050919050565b7f434944206172726179206c656e677468206d757374206d61746368206d696e7460008201527f20636f756e740000000000000000000000000000000000000000000000000000602082015250565b6000613caf602683612c66565b9150613cba82613c53565b604082019050919050565b60006020820190508181036000830152613cde81613ca2565b9050919050565b7f455243373231456e756d657261626c653a20676c6f62616c20696e646578206f60008201527f7574206f6620626f756e64730000000000000000000000000000000000000000602082015250565b6000613d41602c83612c66565b9150613d4c82613ce5565b604082019050919050565b60006020820190508181036000830152613d7081613d34565b9050919050565b7f4552433732313a206f776e657220717565727920666f72206e6f6e657869737460008201527f656e7420746f6b656e0000000000000000000000000000000000000000000000602082015250565b6000613dd3602983612c66565b9150613dde82613d77565b604082019050919050565b60006020820190508181036000830152613e0281613dc6565b9050919050565b7f4552433732313a2062616c616e636520717565727920666f7220746865207a6560008201527f726f206164647265737300000000000000000000000000000000000000000000602082015250565b6000613e65602a83612c66565b9150613e7082613e09565b604082019050919050565b60006020820190508181036000830152613e9481613e58565b9050919050565b7f546f6b656e20646f6573206e6f74206578697374000000000000000000000000600082015250565b6000613ed1601483612c66565b9150613edc82613e9b565b602082019050919050565b60006020820190508181036000830152613f0081613ec4565b9050919050565b7f4552433732314d657461646174613a2055524920717565727920666f72206e6f60008201527f6e6578697374656e7420746f6b656e0000000000000000000000000000000000602082015250565b6000613f63602f83612c66565b9150613f6e82613f07565b604082019050919050565b60006020820190508181036000830152613f9281613f56565b9050919050565b600081905092915050565b6000613faf82612c5b565b613fb98185613f99565b9350613fc9818560208601612c77565b80840191505092915050565b6000613fe18285613fa4565b9150613fed8284613fa4565b91508190509392505050565b7f4f776e61626c653a206e6577206f776e657220697320746865207a65726f206160008201527f6464726573730000000000000000000000000000000000000000000000000000602082015250565b6000614055602683612c66565b915061406082613ff9565b604082019050919050565b6000602082019050818103600083015261408481614048565b9050919050565b600061409682612d16565b91506140a183612d16565b9250827fffffffffffffffffffffffffffffffffffffffffffffffffffffffffffffffff038211156140d6576140d561380a565b5b828201905092915050565b7f4552433732313a206f70657261746f7220717565727920666f72206e6f6e657860008201527f697374656e7420746f6b656e0000000000000000000000000000000000000000602082015250565b600061413d602c83612c66565b9150614148826140e1565b604082019050919050565b6000602082019050818103600083015261416c81614130565b9050919050565b7f4552433732313a207472616e736665722066726f6d20696e636f72726563742060008201527f6f776e6572000000000000000000000000000000000000000000000000000000602082015250565b60006141cf602583612c66565b91506141da82614173565b604082019050919050565b600060208201905081810360008301526141fe816141c2565b9050919050565b7f4552433732313a207472616e7366657220746f20746865207a65726f2061646460008201527f7265737300000000000000000000000000000000000000000000000000000000602082015250565b6000614261602483612c66565b915061426c82614205565b604082019050919050565b6000602082019050818103600083015261429081614254565b9050919050565b60006142a282612d16565b91506142ad83612d16565b9250828210156142c0576142bf61380a565b5b828203905092915050565b60006142d682612d16565b91506142e183612d16565b9250817fffffffffffffffffffffffffffffffffffffffffffffffffffffffffffffffff048311821515161561431a5761431961380a565b5b828202905092915050565b7f4552433732313a20617070726f766520746f2063616c6c657200000000000000600082015250565b600061435b601983612c66565b915061436682614325565b602082019050919050565b6000602082019050818103600083015261438a8161434e565b9050919050565b7f4552433732313a207472616e7366657220746f206e6f6e20455243373231526560008201527f63656976657220696d706c656d656e7465720000000000000000000000000000602082015250565b60006143ed603283612c66565b91506143f882614391565b604082019050919050565b6000602082019050818103600083015261441c816143e0565b9050919050565b7f4e487b7100000000000000000000000000000000000000000000000000000000600052601260045260246000fd5b600061445d82612d16565b915061446883612d16565b92508261447857614477614423565b5b828204905092915050565b600061448e82612d16565b915061449983612d16565b9250826144a9576144a8614423565b5b828206905092915050565b600081519050919050565b600082825260208201905092915050565b60006144db826144b4565b6144e581856144bf565b93506144f5818560208601612c77565b6144fe81612caa565b840191505092915050565b600060808201905061451e6000830187612dab565b61452b6020830186612dab565b6145386040830185612e41565b818103606083015261454a81846144d0565b905095945050505050565b60008151905061456481612bcc565b92915050565b6000602082840312156145805761457f612b96565b5b600061458e84828501614555565b91505092915050565b7f4e487b7100000000000000000000000000000000000000000000000000000000600052603160045260246000fd5b7f4552433732313a206d696e7420746f20746865207a65726f2061646472657373600082015250565b60006145fc602083612c66565b9150614607826145c6565b602082019050919050565b6000602082019050818103600083015261462b816145ef565b9050919050565b7f4552433732313a20746f6b656e20616c7265616479206d696e74656400000000600082015250565b6000614668601c83612c66565b915061467382614632565b602082019050919050565b600060208201905081810360008301526146978161465b565b905091905056fea2646970667358221220f72d9cf260004b6334c91507181295a4b1cc76566533c6ab40b58500aa7bf76164736f6c634300080d0033",
  "immutableReferences": {},
  "source": "// SPDX-License-Identifier: MIT\npragma solidity ^0.8.13;\n\nimport \"@openzeppelin/contracts/utils/Counters.sol\";\nimport \"@openzeppelin/contracts/access/Ownable.sol\";\nimport \"@openzeppelin/contracts/utils/math/SafeMath.sol\";\nimport \"@openzeppelin/contracts/token/ERC721/extensions/ERC721Enumerable.sol\";\n\ncontract NFTCollection is ERC721Enumerable, Ownable {\n    using SafeMath for uint256;\n    using Counters for Counters.Counter;\n\n    Counters.Counter private _tokenIds;\n    uint public constant MAX_SUPPLY = 100;\n    uint public constant PRICE = 0.00001 ether;\n    uint public constant MAX_PER_MINT = 100;\n\n    string public baseTokenURI;\n\n    // Mapping from token ID to its IPFS CID\n    mapping(uint => string) private tokenCIDs;\n\n    constructor(\n        string memory baseURI,\n        string memory name,\n        string memory symbol\n    ) ERC721(name, symbol) {\n        setBaseURI(baseURI);\n    }\n\n    function _baseURI() internal view virtual override returns (string memory) {\n        return baseTokenURI;\n    }\n\n    function setBaseURI(string memory _baseTokenURI) public onlyOwner {\n        baseTokenURI = _baseTokenURI;\n    }\n\n    function mintNFTs(uint _count, string[] memory _cids) public payable {\n        uint totalMinted = _tokenIds.current();\n\n        require(\n            totalMinted.add(_count) <= MAX_SUPPLY,\n            \"This collection is sold out!\"\n        );\n        require(\n            _count > 0 && _count <= MAX_PER_MINT,\n            \"You have received the maximum amount of NFTs allowed.\"\n        );\n        require(\n            msg.value >= PRICE.mul(_count),\n            \"Not enough ether to purchase NFTs.\"\n        );\n        require(\n            _count == _cids.length,\n            \"CID array length must match mint count\"\n        );\n\n        for (uint i = 0; i < _count; i++) {\n            _mintSingleNFT(_cids[i]);\n        }\n    }\n\n    function _mintSingleNFT(string memory _cid) private {\n        uint newTokenID = _tokenIds.current();\n        _safeMint(msg.sender, newTokenID);\n        tokenCIDs[newTokenID] = _cid;\n        _tokenIds.increment();\n    }\n\n    // Get CID (IPFS hash) of a specific NFT\n    function getTokenCID(uint _tokenId) public view returns (string memory) {\n        require(_exists(_tokenId), \"Token does not exist\");\n        return tokenCIDs[_tokenId];\n    }\n\n    function tokensOfOwner(\n        address _owner\n    ) external view returns (uint[] memory) {\n        uint tokenCount = balanceOf(_owner);\n        uint[] memory tokensId = new uint256[](tokenCount);\n\n        for (uint i = 0; i < tokenCount; i++) {\n            tokensId[i] = tokenOfOwnerByIndex(_owner, i);\n        }\n        return tokensId;\n    }\n\n    function withdraw() public payable onlyOwner {\n        uint balance = address(this).balance;\n        require(balance > 0, \"No ether left to withdraw\");\n\n        (bool success, ) = (msg.sender).call{value: balance}(\"\");\n        require(success, \"Transfer failed.\");\n    }\n\n    function reserveNFTs(uint _count, string[] memory _cids) public onlyOwner {\n        uint totalMinted = _tokenIds.current();\n\n        require(\n            totalMinted.add(_count) < MAX_SUPPLY,\n            \"Not enough NFTs left to reserve\"\n        );\n        require(\n            _count == _cids.length,\n            \"CID array length must match reserve count\"\n        );\n\n        for (uint i = 0; i < _count; i++) {\n            _mintSingleNFT(_cids[i]);\n        }\n    }\n}\n",
  "sourcePath": "D:\\ethereum\\nft-contract\\contracts\\NFTCollection.sol",
  "compiler": {
    "name": "solc",
    "version": "0.8.13+commit.abaa5c0e.Emscripten.clang"
  },
  "schemaVersion": "3.4.16",
  "updatedAt": "2025-03-05T11:08:58.565Z",
  "devdoc": {
    "kind": "dev",
    "methods": {
      "approve(address,uint256)": {
        "details": "See {IERC721-approve}."
      },
      "balanceOf(address)": {
        "details": "See {IERC721-balanceOf}."
      },
      "getApproved(uint256)": {
        "details": "See {IERC721-getApproved}."
      },
      "isApprovedForAll(address,address)": {
        "details": "See {IERC721-isApprovedForAll}."
      },
      "name()": {
        "details": "See {IERC721Metadata-name}."
      },
      "owner()": {
        "details": "Returns the address of the current owner."
      },
      "ownerOf(uint256)": {
        "details": "See {IERC721-ownerOf}."
      },
      "renounceOwnership()": {
        "details": "Leaves the contract without owner. It will not be possible to call `onlyOwner` functions anymore. Can only be called by the current owner. NOTE: Renouncing ownership will leave the contract without an owner, thereby removing any functionality that is only available to the owner."
      },
      "safeTransferFrom(address,address,uint256)": {
        "details": "See {IERC721-safeTransferFrom}."
      },
      "safeTransferFrom(address,address,uint256,bytes)": {
        "details": "See {IERC721-safeTransferFrom}."
      },
      "setApprovalForAll(address,bool)": {
        "details": "See {IERC721-setApprovalForAll}."
      },
      "supportsInterface(bytes4)": {
        "details": "See {IERC165-supportsInterface}."
      },
      "symbol()": {
        "details": "See {IERC721Metadata-symbol}."
      },
      "tokenByIndex(uint256)": {
        "details": "See {IERC721Enumerable-tokenByIndex}."
      },
      "tokenOfOwnerByIndex(address,uint256)": {
        "details": "See {IERC721Enumerable-tokenOfOwnerByIndex}."
      },
      "tokenURI(uint256)": {
        "details": "See {IERC721Metadata-tokenURI}."
      },
      "totalSupply()": {
        "details": "See {IERC721Enumerable-totalSupply}."
      },
      "transferFrom(address,address,uint256)": {
        "details": "See {IERC721-transferFrom}."
      },
      "transferOwnership(address)": {
        "details": "Transfers ownership of the contract to a new account (`newOwner`). Can only be called by the current owner."
      }
    },
    "version": 1
  },
  "userdoc": {
    "kind": "user",
    "methods": {},
    "version": 1
  }
}