{
  "contractName": "NFTCollection",
  "abi": [
    {
      "inputs": [
        {
          "internalType": "string",
          "name": "name",
          "type": "string"
        },
        {
          "internalType": "string",
          "name": "symbol",
          "type": "string"
        }
      ],
      "stateMutability": "nonpayable",
      "type": "constructor"
    },
    {
      "anonymous": false,
      "inputs": [
        {
          "indexed": true,
          "internalType": "address",
          "name": "owner",
          "type": "address"
        },
        {
          "indexed": true,
          "internalType": "address",
          "name": "approved",
          "type": "address"
        },
        {
          "indexed": true,
          "internalType": "uint256",
          "name": "tokenId",
          "type": "uint256"
        }
      ],
      "name": "Approval",
      "type": "event"
    },
    {
      "anonymous": false,
      "inputs": [
        {
          "indexed": true,
          "internalType": "address",
          "name": "owner",
          "type": "address"
        },
        {
          "indexed": true,
          "internalType": "address",
          "name": "operator",
          "type": "address"
        },
        {
          "indexed": false,
          "internalType": "bool",
          "name": "approved",
          "type": "bool"
        }
      ],
      "name": "ApprovalForAll",
      "type": "event"
    },
    {
      "anonymous": false,
      "inputs": [
        {
          "indexed": true,
          "internalType": "address",
          "name": "previousOwner",
          "type": "address"
        },
        {
          "indexed": true,
          "internalType": "address",
          "name": "newOwner",
          "type": "address"
        }
      ],
      "name": "OwnershipTransferred",
      "type": "event"
    },
    {
      "anonymous": false,
      "inputs": [
        {
          "indexed": true,
          "internalType": "address",
          "name": "from",
          "type": "address"
        },
        {
          "indexed": true,
          "internalType": "address",
          "name": "to",
          "type": "address"
        },
        {
          "indexed": true,
          "internalType": "uint256",
          "name": "tokenId",
          "type": "uint256"
        }
      ],
      "name": "Transfer",
      "type": "event"
    },
    {
      "inputs": [
        {
          "internalType": "address",
          "name": "to",
          "type": "address"
        },
        {
          "internalType": "uint256",
          "name": "tokenId",
          "type": "uint256"
        }
      ],
      "name": "approve",
      "outputs": [],
      "stateMutability": "nonpayable",
      "type": "function"
    },
    {
      "inputs": [
        {
          "internalType": "address",
          "name": "owner",
          "type": "address"
        }
      ],
      "name": "balanceOf",
      "outputs": [
        {
          "internalType": "uint256",
          "name": "",
          "type": "uint256"
        }
      ],
      "stateMutability": "view",
      "type": "function"
    },
    {
      "inputs": [
        {
          "internalType": "uint256",
          "name": "tokenId",
          "type": "uint256"
        }
      ],
      "name": "getApproved",
      "outputs": [
        {
          "internalType": "address",
          "name": "",
          "type": "address"
        }
      ],
      "stateMutability": "view",
      "type": "function"
    },
    {
      "inputs": [
        {
          "internalType": "address",
          "name": "owner",
          "type": "address"
        },
        {
          "internalType": "address",
          "name": "operator",
          "type": "address"
        }
      ],
      "name": "isApprovedForAll",
      "outputs": [
        {
          "internalType": "bool",
          "name": "",
          "type": "bool"
        }
      ],
      "stateMutability": "view",
      "type": "function"
    },
    {
      "inputs": [],
      "name": "name",
      "outputs": [
        {
          "internalType": "string",
          "name": "",
          "type": "string"
        }
      ],
      "stateMutability": "view",
      "type": "function"
    },
    {
      "inputs": [],
      "name": "owner",
      "outputs": [
        {
          "internalType": "address",
          "name": "",
          "type": "address"
        }
      ],
      "stateMutability": "view",
      "type": "function"
    },
    {
      "inputs": [
        {
          "internalType": "uint256",
          "name": "tokenId",
          "type": "uint256"
        }
      ],
      "name": "ownerOf",
      "outputs": [
        {
          "internalType": "address",
          "name": "",
          "type": "address"
        }
      ],
      "stateMutability": "view",
      "type": "function"
    },
    {
      "inputs": [],
      "name": "renounceOwnership",
      "outputs": [],
      "stateMutability": "nonpayable",
      "type": "function"
    },
    {
      "inputs": [
        {
          "internalType": "address",
          "name": "from",
          "type": "address"
        },
        {
          "internalType": "address",
          "name": "to",
          "type": "address"
        },
        {
          "internalType": "uint256",
          "name": "tokenId",
          "type": "uint256"
        }
      ],
      "name": "safeTransferFrom",
      "outputs": [],
      "stateMutability": "nonpayable",
      "type": "function"
    },
    {
      "inputs": [
        {
          "internalType": "address",
          "name": "from",
          "type": "address"
        },
        {
          "internalType": "address",
          "name": "to",
          "type": "address"
        },
        {
          "internalType": "uint256",
          "name": "tokenId",
          "type": "uint256"
        },
        {
          "internalType": "bytes",
          "name": "_data",
          "type": "bytes"
        }
      ],
      "name": "safeTransferFrom",
      "outputs": [],
      "stateMutability": "nonpayable",
      "type": "function"
    },
    {
      "inputs": [
        {
          "internalType": "address",
          "name": "operator",
          "type": "address"
        },
        {
          "internalType": "bool",
          "name": "approved",
          "type": "bool"
        }
      ],
      "name": "setApprovalForAll",
      "outputs": [],
      "stateMutability": "nonpayable",
      "type": "function"
    },
    {
      "inputs": [
        {
          "internalType": "bytes4",
          "name": "interfaceId",
          "type": "bytes4"
        }
      ],
      "name": "supportsInterface",
      "outputs": [
        {
          "internalType": "bool",
          "name": "",
          "type": "bool"
        }
      ],
      "stateMutability": "view",
      "type": "function"
    },
    {
      "inputs": [],
      "name": "symbol",
      "outputs": [
        {
          "internalType": "string",
          "name": "",
          "type": "string"
        }
      ],
      "stateMutability": "view",
      "type": "function"
    },
    {
      "inputs": [
        {
          "internalType": "uint256",
          "name": "index",
          "type": "uint256"
        }
      ],
      "name": "tokenByIndex",
      "outputs": [
        {
          "internalType": "uint256",
          "name": "",
          "type": "uint256"
        }
      ],
      "stateMutability": "view",
      "type": "function"
    },
    {
      "inputs": [
        {
          "internalType": "address",
          "name": "owner",
          "type": "address"
        },
        {
          "internalType": "uint256",
          "name": "index",
          "type": "uint256"
        }
      ],
      "name": "tokenOfOwnerByIndex",
      "outputs": [
        {
          "internalType": "uint256",
          "name": "",
          "type": "uint256"
        }
      ],
      "stateMutability": "view",
      "type": "function"
    },
    {
      "inputs": [
        {
          "internalType": "uint256",
          "name": "tokenId",
          "type": "uint256"
        }
      ],
      "name": "tokenURI",
      "outputs": [
        {
          "internalType": "string",
          "name": "",
          "type": "string"
        }
      ],
      "stateMutability": "view",
      "type": "function"
    },
    {
      "inputs": [],
      "name": "totalSupply",
      "outputs": [
        {
          "internalType": "uint256",
          "name": "",
          "type": "uint256"
        }
      ],
      "stateMutability": "view",
      "type": "function"
    },
    {
      "inputs": [
        {
          "internalType": "address",
          "name": "from",
          "type": "address"
        },
        {
          "internalType": "address",
          "name": "to",
          "type": "address"
        },
        {
          "internalType": "uint256",
          "name": "tokenId",
          "type": "uint256"
        }
      ],
      "name": "transferFrom",
      "outputs": [],
      "stateMutability": "nonpayable",
      "type": "function"
    },
    {
      "inputs": [
        {
          "internalType": "address",
          "name": "newOwner",
          "type": "address"
        }
      ],
      "name": "transferOwnership",
      "outputs": [],
      "stateMutability": "nonpayable",
      "type": "function"
    },
    {
      "inputs": [
        {
          "internalType": "uint256",
          "name": "_count",
          "type": "uint256"
        },
        {
          "internalType": "string[]",
          "name": "_cids",
          "type": "string[]"
        }
      ],
      "name": "mintNFTs",
      "outputs": [],
      "stateMutability": "payable",
      "type": "function"
    },
    {
      "inputs": [
        {
          "internalType": "uint256",
          "name": "_tokenId",
          "type": "uint256"
        }
      ],
      "name": "getTokenCID",
      "outputs": [
        {
          "internalType": "string",
          "name": "",
          "type": "string"
        }
      ],
      "stateMutability": "view",
      "type": "function"
    },
    {
      "inputs": [
        {
          "internalType": "address",
          "name": "_owner",
          "type": "address"
        }
      ],
      "name": "tokensOfOwner",
      "outputs": [
        {
          "internalType": "uint256[]",
          "name": "",
          "type": "uint256[]"
        }
      ],
      "stateMutability": "view",
      "type": "function"
    },
    {
      "inputs": [
        {
          "internalType": "string",
          "name": "_cid",
          "type": "string"
        }
      ],
      "name": "retrieveOwnerOfCID",
      "outputs": [
        {
          "internalType": "address",
          "name": "",
          "type": "address"
        }
      ],
      "stateMutability": "view",
      "type": "function"
    },
    {
      "inputs": [
        {
          "internalType": "address",
          "name": "from",
          "type": "address"
        },
        {
          "internalType": "address",
          "name": "to",
          "type": "address"
        },
        {
          "internalType": "uint256",
          "name": "_tokenId",
          "type": "uint256"
        }
      ],
      "name": "transferNFT",
      "outputs": [
        {
          "internalType": "bool",
          "name": "",
          "type": "bool"
        }
      ],
      "stateMutability": "payable",
      "type": "function"
    }
  ],
  "bytecode": "0x60806040523480156200001157600080fd5b5060405162004159380380620041598339818101604052810190620000379190620003b0565b818181600090805190602001906200005192919062000163565b5080600190805190602001906200006a92919062000163565b5050506200008d620000816200009560201b60201c565b6200009d60201b60201c565b505062000499565b600033905090565b6000600a60009054906101000a900473ffffffffffffffffffffffffffffffffffffffff16905081600a60006101000a81548173ffffffffffffffffffffffffffffffffffffffff021916908373ffffffffffffffffffffffffffffffffffffffff1602179055508173ffffffffffffffffffffffffffffffffffffffff168173ffffffffffffffffffffffffffffffffffffffff167f8be0079c531659141344cd1fd0a4f28419497f9722a3daafe3b4186f6b6457e060405160405180910390a35050565b828054620001719062000464565b90600052602060002090601f016020900481019282620001955760008555620001e1565b82601f10620001b057805160ff1916838001178555620001e1565b82800160010185558215620001e1579182015b82811115620001e0578251825591602001919060010190620001c3565b5b509050620001f09190620001f4565b5090565b5b808211156200020f576000816000905550600101620001f5565b5090565b6000604051905090565b600080fd5b600080fd5b600080fd5b600080fd5b6000601f19601f8301169050919050565b7f4e487b7100000000000000000000000000000000000000000000000000000000600052604160045260246000fd5b6200027c8262000231565b810181811067ffffffffffffffff821117156200029e576200029d62000242565b5b80604052505050565b6000620002b362000213565b9050620002c1828262000271565b919050565b600067ffffffffffffffff821115620002e457620002e362000242565b5b620002ef8262000231565b9050602081019050919050565b60005b838110156200031c578082015181840152602081019050620002ff565b838111156200032c576000848401525b50505050565b6000620003496200034384620002c6565b620002a7565b9050828152602081018484840111156200036857620003676200022c565b5b62000375848285620002fc565b509392505050565b600082601f83011262000395576200039462000227565b5b8151620003a784826020860162000332565b91505092915050565b60008060408385031215620003ca57620003c96200021d565b5b600083015167ffffffffffffffff811115620003eb57620003ea62000222565b5b620003f9858286016200037d565b925050602083015167ffffffffffffffff8111156200041d576200041c62000222565b5b6200042b858286016200037d565b9150509250929050565b7f4e487b7100000000000000000000000000000000000000000000000000000000600052602260045260246000fd5b600060028204905060018216806200047d57607f821691505b60208210810362000493576200049262000435565b5b50919050565b613cb080620004a96000396000f3fe60806040526004361061014b5760003560e01c806370a08231116100b6578063b458f9271161006f578063b458f927146104ae578063b88d4fde146104eb578063c6aa2f2514610514578063c87b56dd14610551578063e985e9c51461058e578063f2fde38b146105cb5761014b565b806370a082311461039e578063715018a6146103db5780638462151c146103f25780638da5cb5b1461042f57806395d89b411461045a578063a22cb465146104855761014b565b80632f745c59116101085780632f745c591461027257806342842e0e146102af57806347c0474a146102d85780634f6ccce7146102f45780636352211e1461033157806369e9cae11461036e5761014b565b806301ffc9a71461015057806306fdde031461018d578063081812fc146101b8578063095ea7b3146101f557806318160ddd1461021e57806323b872dd14610249575b600080fd5b34801561015c57600080fd5b50610177600480360381019061017291906125b6565b6105f4565b60405161018491906125fe565b60405180910390f35b34801561019957600080fd5b506101a261066e565b6040516101af91906126b2565b60405180910390f35b3480156101c457600080fd5b506101df60048036038101906101da919061270a565b610700565b6040516101ec9190612778565b60405180910390f35b34801561020157600080fd5b5061021c600480360381019061021791906127bf565b610785565b005b34801561022a57600080fd5b5061023361089c565b604051610240919061280e565b60405180910390f35b34801561025557600080fd5b50610270600480360381019061026b9190612829565b6108a9565b005b34801561027e57600080fd5b50610299600480360381019061029491906127bf565b610909565b6040516102a6919061280e565b60405180910390f35b3480156102bb57600080fd5b506102d660048036038101906102d19190612829565b6109ae565b005b6102f260048036038101906102ed9190612a97565b6109ce565b005b34801561030057600080fd5b5061031b6004803603810190610316919061270a565b610a14565b604051610328919061280e565b60405180910390f35b34801561033d57600080fd5b506103586004803603810190610353919061270a565b610a85565b6040516103659190612778565b60405180910390f35b61038860048036038101906103839190612829565b610b36565b60405161039591906125fe565b60405180910390f35b3480156103aa57600080fd5b506103c560048036038101906103c09190612af3565b610b97565b6040516103d2919061280e565b60405180910390f35b3480156103e757600080fd5b506103f0610c4e565b005b3480156103fe57600080fd5b5061041960048036038101906104149190612af3565b610cd6565b6040516104269190612bde565b60405180910390f35b34801561043b57600080fd5b50610444610d84565b6040516104519190612778565b60405180910390f35b34801561046657600080fd5b5061046f610dae565b60405161047c91906126b2565b60405180910390f35b34801561049157600080fd5b506104ac60048036038101906104a79190612c2c565b610e40565b005b3480156104ba57600080fd5b506104d560048036038101906104d0919061270a565b610e56565b6040516104e291906126b2565b60405180910390f35b3480156104f757600080fd5b50610512600480360381019061050d9190612d0d565b610f43565b005b34801561052057600080fd5b5061053b60048036038101906105369190612d90565b610fa5565b6040516105489190612778565b60405180910390f35b34801561055d57600080fd5b506105786004803603810190610573919061270a565b611023565b60405161058591906126b2565b60405180910390f35b34801561059a57600080fd5b506105b560048036038101906105b09190612dd9565b6110ca565b6040516105c291906125fe565b60405180910390f35b3480156105d757600080fd5b506105f260048036038101906105ed9190612af3565b61115e565b005b60007f780e9d63000000000000000000000000000000000000000000000000000000007bffffffffffffffffffffffffffffffffffffffffffffffffffffffff1916827bffffffffffffffffffffffffffffffffffffffffffffffffffffffff19161480610667575061066682611255565b5b9050919050565b60606000805461067d90612e48565b80601f01602080910402602001604051908101604052809291908181526020018280546106a990612e48565b80156106f65780601f106106cb576101008083540402835291602001916106f6565b820191906000526020600020905b8154815290600101906020018083116106d957829003601f168201915b5050505050905090565b600061070b82611337565b61074a576040517f08c379a000000000000000000000000000000000000000000000000000000000815260040161074190612eeb565b60405180910390fd5b6004600083815260200190815260200160002060009054906101000a900473ffffffffffffffffffffffffffffffffffffffff169050919050565b600061079082610a85565b90508073ffffffffffffffffffffffffffffffffffffffff168373ffffffffffffffffffffffffffffffffffffffff1603610800576040517f08c379a00000000000000000000000000000000000000000000000000000000081526004016107f790612f7d565b60405180910390fd5b8073ffffffffffffffffffffffffffffffffffffffff1661081f6113a3565b73ffffffffffffffffffffffffffffffffffffffff16148061084e575061084d816108486113a3565b6110ca565b5b61088d576040517f08c379a00000000000000000000000000000000000000000000000000000000081526004016108849061300f565b60405180910390fd5b61089783836113ab565b505050565b6000600880549050905090565b6108ba6108b46113a3565b82611464565b6108f9576040517f08c379a00000000000000000000000000000000000000000000000000000000081526004016108f0906130a1565b60405180910390fd5b610904838383611542565b505050565b600061091483610b97565b8210610955576040517f08c379a000000000000000000000000000000000000000000000000000000000815260040161094c90613133565b60405180910390fd5b600660008473ffffffffffffffffffffffffffffffffffffffff1673ffffffffffffffffffffffffffffffffffffffff168152602001908152602001600020600083815260200190815260200160002054905092915050565b6109c983838360405180602001604052806000815250610f43565b505050565b60005b82811015610a0f576109fc8282815181106109ef576109ee613153565b5b60200260200101516117a8565b8080610a07906131b1565b9150506109d1565b505050565b6000610a1e61089c565b8210610a5f576040517f08c379a0000000000000000000000000000000000000000000000000000000008152600401610a569061326b565b60405180910390fd5b60088281548110610a7357610a72613153565b5b90600052602060002001549050919050565b6000806002600084815260200190815260200160002060009054906101000a900473ffffffffffffffffffffffffffffffffffffffff169050600073ffffffffffffffffffffffffffffffffffffffff168173ffffffffffffffffffffffffffffffffffffffff1603610b2d576040517f08c379a0000000000000000000000000000000000000000000000000000000008152600401610b24906132fd565b60405180910390fd5b80915050919050565b6000610b428483611464565b610b81576040517f08c379a0000000000000000000000000000000000000000000000000000000008152600401610b78906130a1565b60405180910390fd5b610b8c8484846109ae565b600190509392505050565b60008073ffffffffffffffffffffffffffffffffffffffff168273ffffffffffffffffffffffffffffffffffffffff1603610c07576040517f08c379a0000000000000000000000000000000000000000000000000000000008152600401610bfe9061338f565b60405180910390fd5b600360008373ffffffffffffffffffffffffffffffffffffffff1673ffffffffffffffffffffffffffffffffffffffff168152602001908152602001600020549050919050565b610c566113a3565b73ffffffffffffffffffffffffffffffffffffffff16610c74610d84565b73ffffffffffffffffffffffffffffffffffffffff1614610cca576040517f08c379a0000000000000000000000000000000000000000000000000000000008152600401610cc1906133fb565b60405180910390fd5b610cd460006117f6565b565b60606000610ce383610b97565b905060008167ffffffffffffffff811115610d0157610d00612881565b5b604051908082528060200260200182016040528015610d2f5781602001602082028036833780820191505090505b50905060005b82811015610d7957610d478582610909565b828281518110610d5a57610d59613153565b5b6020026020010181815250508080610d71906131b1565b915050610d35565b508092505050919050565b6000600a60009054906101000a900473ffffffffffffffffffffffffffffffffffffffff16905090565b606060018054610dbd90612e48565b80601f0160208091040260200160405190810160405280929190818152602001828054610de990612e48565b8015610e365780601f10610e0b57610100808354040283529160200191610e36565b820191906000526020600020905b815481529060010190602001808311610e1957829003601f168201915b5050505050905090565b610e52610e4b6113a3565b83836118bc565b5050565b6060610e6182611337565b610ea0576040517f08c379a0000000000000000000000000000000000000000000000000000000008152600401610e9790613467565b60405180910390fd5b600c60008381526020019081526020016000208054610ebe90612e48565b80601f0160208091040260200160405190810160405280929190818152602001828054610eea90612e48565b8015610f375780601f10610f0c57610100808354040283529160200191610f37565b820191906000526020600020905b815481529060010190602001808311610f1a57829003601f168201915b50505050509050919050565b610f54610f4e6113a3565b83611464565b610f93576040517f08c379a0000000000000000000000000000000000000000000000000000000008152600401610f8a906130a1565b60405180910390fd5b610f9f84848484611a28565b50505050565b600080610fb061089c565b905060005b81811015611017578380519060200120600c6000838152602001908152602001600020604051610fe59190613526565b60405180910390200361100457610ffb81610a85565b9250505061101e565b808061100f906131b1565b915050610fb5565b5060009150505b919050565b606061102e82611337565b61106d576040517f08c379a0000000000000000000000000000000000000000000000000000000008152600401611064906135af565b60405180910390fd5b6000611077611a84565b9050600081511161109757604051806020016040528060008152506110c2565b806110a184611a9b565b6040516020016110b292919061360b565b6040516020818303038152906040525b915050919050565b6000600560008473ffffffffffffffffffffffffffffffffffffffff1673ffffffffffffffffffffffffffffffffffffffff16815260200190815260200160002060008373ffffffffffffffffffffffffffffffffffffffff1673ffffffffffffffffffffffffffffffffffffffff16815260200190815260200160002060009054906101000a900460ff16905092915050565b6111666113a3565b73ffffffffffffffffffffffffffffffffffffffff16611184610d84565b73ffffffffffffffffffffffffffffffffffffffff16146111da576040517f08c379a00000000000000000000000000000000000000000000000000000000081526004016111d1906133fb565b60405180910390fd5b600073ffffffffffffffffffffffffffffffffffffffff168173ffffffffffffffffffffffffffffffffffffffff1603611249576040517f08c379a0000000000000000000000000000000000000000000000000000000008152600401611240906136a1565b60405180910390fd5b611252816117f6565b50565b60007f80ac58cd000000000000000000000000000000000000000000000000000000007bffffffffffffffffffffffffffffffffffffffffffffffffffffffff1916827bffffffffffffffffffffffffffffffffffffffffffffffffffffffff1916148061132057507f5b5e139f000000000000000000000000000000000000000000000000000000007bffffffffffffffffffffffffffffffffffffffffffffffffffffffff1916827bffffffffffffffffffffffffffffffffffffffffffffffffffffffff1916145b80611330575061132f82611bfb565b5b9050919050565b60008073ffffffffffffffffffffffffffffffffffffffff166002600084815260200190815260200160002060009054906101000a900473ffffffffffffffffffffffffffffffffffffffff1673ffffffffffffffffffffffffffffffffffffffff1614159050919050565b600033905090565b816004600083815260200190815260200160002060006101000a81548173ffffffffffffffffffffffffffffffffffffffff021916908373ffffffffffffffffffffffffffffffffffffffff160217905550808273ffffffffffffffffffffffffffffffffffffffff1661141e83610a85565b73ffffffffffffffffffffffffffffffffffffffff167f8c5be1e5ebec7d5bd14f71427d1e84f3dd0314c0f7b2291e5b200ac8c7c3b92560405160405180910390a45050565b600061146f82611337565b6114ae576040517f08c379a00000000000000000000000000000000000000000000000000000000081526004016114a590613733565b60405180910390fd5b60006114b983610a85565b90508073ffffffffffffffffffffffffffffffffffffffff168473ffffffffffffffffffffffffffffffffffffffff1614806114fb57506114fa81856110ca565b5b8061153957508373ffffffffffffffffffffffffffffffffffffffff1661152184610700565b73ffffffffffffffffffffffffffffffffffffffff16145b91505092915050565b8273ffffffffffffffffffffffffffffffffffffffff1661156282610a85565b73ffffffffffffffffffffffffffffffffffffffff16146115b8576040517f08c379a00000000000000000000000000000000000000000000000000000000081526004016115af906137c5565b60405180910390fd5b600073ffffffffffffffffffffffffffffffffffffffff168273ffffffffffffffffffffffffffffffffffffffff1603611627576040517f08c379a000000000000000000000000000000000000000000000000000000000815260040161161e90613857565b60405180910390fd5b611632838383611c65565b61163d6000826113ab565b6001600360008573ffffffffffffffffffffffffffffffffffffffff1673ffffffffffffffffffffffffffffffffffffffff168152602001908152602001600020600082825461168d9190613877565b925050819055506001600360008473ffffffffffffffffffffffffffffffffffffffff1673ffffffffffffffffffffffffffffffffffffffff16815260200190815260200160002060008282546116e491906138ab565b92505081905550816002600083815260200190815260200160002060006101000a81548173ffffffffffffffffffffffffffffffffffffffff021916908373ffffffffffffffffffffffffffffffffffffffff160217905550808273ffffffffffffffffffffffffffffffffffffffff168473ffffffffffffffffffffffffffffffffffffffff167fddf252ad1be2c89b69c2b068fc378daa952ba7f163c4a11628f55a4df523b3ef60405160405180910390a46117a3838383611d77565b505050565b60006117b4600b611d7c565b90506117c03382611d8a565b81600c600083815260200190815260200160002090805190602001906117e79291906124a7565b506117f2600b611da8565b5050565b6000600a60009054906101000a900473ffffffffffffffffffffffffffffffffffffffff16905081600a60006101000a81548173ffffffffffffffffffffffffffffffffffffffff021916908373ffffffffffffffffffffffffffffffffffffffff1602179055508173ffffffffffffffffffffffffffffffffffffffff168173ffffffffffffffffffffffffffffffffffffffff167f8be0079c531659141344cd1fd0a4f28419497f9722a3daafe3b4186f6b6457e060405160405180910390a35050565b8173ffffffffffffffffffffffffffffffffffffffff168373ffffffffffffffffffffffffffffffffffffffff160361192a576040517f08c379a00000000000000000000000000000000000000000000000000000000081526004016119219061394d565b60405180910390fd5b80600560008573ffffffffffffffffffffffffffffffffffffffff1673ffffffffffffffffffffffffffffffffffffffff16815260200190815260200160002060008473ffffffffffffffffffffffffffffffffffffffff1673ffffffffffffffffffffffffffffffffffffffff16815260200190815260200160002060006101000a81548160ff0219169083151502179055508173ffffffffffffffffffffffffffffffffffffffff168373ffffffffffffffffffffffffffffffffffffffff167f17307eab39ab6107e8899845ad3d59bd9653f200f220920489ca2b5937696c3183604051611a1b91906125fe565b60405180910390a3505050565b611a33848484611542565b611a3f84848484611dbe565b611a7e576040517f08c379a0000000000000000000000000000000000000000000000000000000008152600401611a75906139df565b60405180910390fd5b50505050565b606060405180602001604052806000815250905090565b606060008203611ae2576040518060400160405280600181526020017f30000000000000000000000000000000000000000000000000000000000000008152509050611bf6565b600082905060005b60008214611b14578080611afd906131b1565b915050600a82611b0d9190613a2e565b9150611aea565b60008167ffffffffffffffff811115611b3057611b2f612881565b5b6040519080825280601f01601f191660200182016040528015611b625781602001600182028036833780820191505090505b5090505b60008514611bef57600182611b7b9190613877565b9150600a85611b8a9190613a5f565b6030611b9691906138ab565b60f81b818381518110611bac57611bab613153565b5b60200101907effffffffffffffffffffffffffffffffffffffffffffffffffffffffffffff1916908160001a905350600a85611be89190613a2e565b9450611b66565b8093505050505b919050565b60007f01ffc9a7000000000000000000000000000000000000000000000000000000007bffffffffffffffffffffffffffffffffffffffffffffffffffffffff1916827bffffffffffffffffffffffffffffffffffffffffffffffffffffffff1916149050919050565b611c70838383611f45565b600073ffffffffffffffffffffffffffffffffffffffff168373ffffffffffffffffffffffffffffffffffffffff1603611cb257611cad81611f4a565b611cf1565b8173ffffffffffffffffffffffffffffffffffffffff168373ffffffffffffffffffffffffffffffffffffffff1614611cf057611cef8382611f93565b5b5b600073ffffffffffffffffffffffffffffffffffffffff168273ffffffffffffffffffffffffffffffffffffffff1603611d3357611d2e81612100565b611d72565b8273ffffffffffffffffffffffffffffffffffffffff168273ffffffffffffffffffffffffffffffffffffffff1614611d7157611d7082826121d1565b5b5b505050565b505050565b600081600001549050919050565b611da4828260405180602001604052806000815250612250565b5050565b6001816000016000828254019250508190555050565b6000611ddf8473ffffffffffffffffffffffffffffffffffffffff166122ab565b15611f38578373ffffffffffffffffffffffffffffffffffffffff1663150b7a02611e086113a3565b8786866040518563ffffffff1660e01b8152600401611e2a9493929190613ae5565b6020604051808303816000875af1925050508015611e6657506040513d601f19601f82011682018060405250810190611e639190613b46565b60015b611ee8573d8060008114611e96576040519150601f19603f3d011682016040523d82523d6000602084013e611e9b565b606091505b506000815103611ee0576040517f08c379a0000000000000000000000000000000000000000000000000000000008152600401611ed7906139df565b60405180910390fd5b805181602001fd5b63150b7a0260e01b7bffffffffffffffffffffffffffffffffffffffffffffffffffffffff1916817bffffffffffffffffffffffffffffffffffffffffffffffffffffffff191614915050611f3d565b600190505b949350505050565b505050565b6008805490506009600083815260200190815260200160002081905550600881908060018154018082558091505060019003906000526020600020016000909190919091505550565b60006001611fa084610b97565b611faa9190613877565b905060006007600084815260200190815260200160002054905081811461208f576000600660008673ffffffffffffffffffffffffffffffffffffffff1673ffffffffffffffffffffffffffffffffffffffff168152602001908152602001600020600084815260200190815260200160002054905080600660008773ffffffffffffffffffffffffffffffffffffffff1673ffffffffffffffffffffffffffffffffffffffff168152602001908152602001600020600084815260200190815260200160002081905550816007600083815260200190815260200160002081905550505b6007600084815260200190815260200160002060009055600660008573ffffffffffffffffffffffffffffffffffffffff1673ffffffffffffffffffffffffffffffffffffffff16815260200190815260200160002060008381526020019081526020016000206000905550505050565b600060016008805490506121149190613877565b905060006009600084815260200190815260200160002054905060006008838154811061214457612143613153565b5b90600052602060002001549050806008838154811061216657612165613153565b5b9060005260206000200181905550816009600083815260200190815260200160002081905550600960008581526020019081526020016000206000905560088054806121b5576121b4613b73565b5b6001900381819060005260206000200160009055905550505050565b60006121dc83610b97565b905081600660008573ffffffffffffffffffffffffffffffffffffffff1673ffffffffffffffffffffffffffffffffffffffff168152602001908152602001600020600083815260200190815260200160002081905550806007600084815260200190815260200160002081905550505050565b61225a83836122ce565b6122676000848484611dbe565b6122a6576040517f08c379a000000000000000000000000000000000000000000000000000000000815260040161229d906139df565b60405180910390fd5b505050565b6000808273ffffffffffffffffffffffffffffffffffffffff163b119050919050565b600073ffffffffffffffffffffffffffffffffffffffff168273ffffffffffffffffffffffffffffffffffffffff160361233d576040517f08c379a000000000000000000000000000000000000000000000000000000000815260040161233490613bee565b60405180910390fd5b61234681611337565b15612386576040517f08c379a000000000000000000000000000000000000000000000000000000000815260040161237d90613c5a565b60405180910390fd5b61239260008383611c65565b6001600360008473ffffffffffffffffffffffffffffffffffffffff1673ffffffffffffffffffffffffffffffffffffffff16815260200190815260200160002060008282546123e291906138ab565b92505081905550816002600083815260200190815260200160002060006101000a81548173ffffffffffffffffffffffffffffffffffffffff021916908373ffffffffffffffffffffffffffffffffffffffff160217905550808273ffffffffffffffffffffffffffffffffffffffff16600073ffffffffffffffffffffffffffffffffffffffff167fddf252ad1be2c89b69c2b068fc378daa952ba7f163c4a11628f55a4df523b3ef60405160405180910390a46124a360008383611d77565b5050565b8280546124b390612e48565b90600052602060002090601f0160209004810192826124d5576000855561251c565b82601f106124ee57805160ff191683800117855561251c565b8280016001018555821561251c579182015b8281111561251b578251825591602001919060010190612500565b5b509050612529919061252d565b5090565b5b8082111561254657600081600090555060010161252e565b5090565b6000604051905090565b600080fd5b600080fd5b60007fffffffff0000000000000000000000000000000000000000000000000000000082169050919050565b6125938161255e565b811461259e57600080fd5b50565b6000813590506125b08161258a565b92915050565b6000602082840312156125cc576125cb612554565b5b60006125da848285016125a1565b91505092915050565b60008115159050919050565b6125f8816125e3565b82525050565b600060208201905061261360008301846125ef565b92915050565b600081519050919050565b600082825260208201905092915050565b60005b83811015612653578082015181840152602081019050612638565b83811115612662576000848401525b50505050565b6000601f19601f8301169050919050565b600061268482612619565b61268e8185612624565b935061269e818560208601612635565b6126a781612668565b840191505092915050565b600060208201905081810360008301526126cc8184612679565b905092915050565b6000819050919050565b6126e7816126d4565b81146126f257600080fd5b50565b600081359050612704816126de565b92915050565b6000602082840312156127205761271f612554565b5b600061272e848285016126f5565b91505092915050565b600073ffffffffffffffffffffffffffffffffffffffff82169050919050565b600061276282612737565b9050919050565b61277281612757565b82525050565b600060208201905061278d6000830184612769565b92915050565b61279c81612757565b81146127a757600080fd5b50565b6000813590506127b981612793565b92915050565b600080604083850312156127d6576127d5612554565b5b60006127e4858286016127aa565b92505060206127f5858286016126f5565b9150509250929050565b612808816126d4565b82525050565b600060208201905061282360008301846127ff565b92915050565b60008060006060848603121561284257612841612554565b5b6000612850868287016127aa565b9350506020612861868287016127aa565b9250506040612872868287016126f5565b9150509250925092565b600080fd5b7f4e487b7100000000000000000000000000000000000000000000000000000000600052604160045260246000fd5b6128b982612668565b810181811067ffffffffffffffff821117156128d8576128d7612881565b5b80604052505050565b60006128eb61254a565b90506128f782826128b0565b919050565b600067ffffffffffffffff82111561291757612916612881565b5b602082029050602081019050919050565b600080fd5b600080fd5b600067ffffffffffffffff82111561294d5761294c612881565b5b61295682612668565b9050602081019050919050565b82818337600083830152505050565b600061298561298084612932565b6128e1565b9050828152602081018484840111156129a1576129a061292d565b5b6129ac848285612963565b509392505050565b600082601f8301126129c9576129c861287c565b5b81356129d9848260208601612972565b91505092915050565b60006129f56129f0846128fc565b6128e1565b90508083825260208201905060208402830185811115612a1857612a17612928565b5b835b81811015612a5f57803567ffffffffffffffff811115612a3d57612a3c61287c565b5b808601612a4a89826129b4565b85526020850194505050602081019050612a1a565b5050509392505050565b600082601f830112612a7e57612a7d61287c565b5b8135612a8e8482602086016129e2565b91505092915050565b60008060408385031215612aae57612aad612554565b5b6000612abc858286016126f5565b925050602083013567ffffffffffffffff811115612add57612adc612559565b5b612ae985828601612a69565b9150509250929050565b600060208284031215612b0957612b08612554565b5b6000612b17848285016127aa565b91505092915050565b600081519050919050565b600082825260208201905092915050565b6000819050602082019050919050565b612b55816126d4565b82525050565b6000612b678383612b4c565b60208301905092915050565b6000602082019050919050565b6000612b8b82612b20565b612b958185612b2b565b9350612ba083612b3c565b8060005b83811015612bd1578151612bb88882612b5b565b9750612bc383612b73565b925050600181019050612ba4565b5085935050505092915050565b60006020820190508181036000830152612bf88184612b80565b905092915050565b612c09816125e3565b8114612c1457600080fd5b50565b600081359050612c2681612c00565b92915050565b60008060408385031215612c4357612c42612554565b5b6000612c51858286016127aa565b9250506020612c6285828601612c17565b9150509250929050565b600067ffffffffffffffff821115612c8757612c86612881565b5b612c9082612668565b9050602081019050919050565b6000612cb0612cab84612c6c565b6128e1565b905082815260208101848484011115612ccc57612ccb61292d565b5b612cd7848285612963565b509392505050565b600082601f830112612cf457612cf361287c565b5b8135612d04848260208601612c9d565b91505092915050565b60008060008060808587031215612d2757612d26612554565b5b6000612d35878288016127aa565b9450506020612d46878288016127aa565b9350506040612d57878288016126f5565b925050606085013567ffffffffffffffff811115612d7857612d77612559565b5b612d8487828801612cdf565b91505092959194509250565b600060208284031215612da657612da5612554565b5b600082013567ffffffffffffffff811115612dc457612dc3612559565b5b612dd0848285016129b4565b91505092915050565b60008060408385031215612df057612def612554565b5b6000612dfe858286016127aa565b9250506020612e0f858286016127aa565b9150509250929050565b7f4e487b7100000000000000000000000000000000000000000000000000000000600052602260045260246000fd5b60006002820490506001821680612e6057607f821691505b602082108103612e7357612e72612e19565b5b50919050565b7f4552433732313a20617070726f76656420717565727920666f72206e6f6e657860008201527f697374656e7420746f6b656e0000000000000000000000000000000000000000602082015250565b6000612ed5602c83612624565b9150612ee082612e79565b604082019050919050565b60006020820190508181036000830152612f0481612ec8565b9050919050565b7f4552433732313a20617070726f76616c20746f2063757272656e74206f776e6560008201527f7200000000000000000000000000000000000000000000000000000000000000602082015250565b6000612f67602183612624565b9150612f7282612f0b565b604082019050919050565b60006020820190508181036000830152612f9681612f5a565b9050919050565b7f4552433732313a20617070726f76652063616c6c6572206973206e6f74206f7760008201527f6e6572206e6f7220617070726f76656420666f7220616c6c0000000000000000602082015250565b6000612ff9603883612624565b915061300482612f9d565b604082019050919050565b6000602082019050818103600083015261302881612fec565b9050919050565b7f4552433732313a207472616e736665722063616c6c6572206973206e6f74206f60008201527f776e6572206e6f7220617070726f766564000000000000000000000000000000602082015250565b600061308b603183612624565b91506130968261302f565b604082019050919050565b600060208201905081810360008301526130ba8161307e565b9050919050565b7f455243373231456e756d657261626c653a206f776e657220696e646578206f7560008201527f74206f6620626f756e6473000000000000000000000000000000000000000000602082015250565b600061311d602b83612624565b9150613128826130c1565b604082019050919050565b6000602082019050818103600083015261314c81613110565b9050919050565b7f4e487b7100000000000000000000000000000000000000000000000000000000600052603260045260246000fd5b7f4e487b7100000000000000000000000000000000000000000000000000000000600052601160045260246000fd5b60006131bc826126d4565b91507fffffffffffffffffffffffffffffffffffffffffffffffffffffffffffffffff82036131ee576131ed613182565b5b600182019050919050565b7f455243373231456e756d657261626c653a20676c6f62616c20696e646578206f60008201527f7574206f6620626f756e64730000000000000000000000000000000000000000602082015250565b6000613255602c83612624565b9150613260826131f9565b604082019050919050565b6000602082019050818103600083015261328481613248565b9050919050565b7f4552433732313a206f776e657220717565727920666f72206e6f6e657869737460008201527f656e7420746f6b656e0000000000000000000000000000000000000000000000602082015250565b60006132e7602983612624565b91506132f28261328b565b604082019050919050565b60006020820190508181036000830152613316816132da565b9050919050565b7f4552433732313a2062616c616e636520717565727920666f7220746865207a6560008201527f726f206164647265737300000000000000000000000000000000000000000000602082015250565b6000613379602a83612624565b91506133848261331d565b604082019050919050565b600060208201905081810360008301526133a88161336c565b9050919050565b7f4f776e61626c653a2063616c6c6572206973206e6f7420746865206f776e6572600082015250565b60006133e5602083612624565b91506133f0826133af565b602082019050919050565b60006020820190508181036000830152613414816133d8565b9050919050565b7f546f6b656e20646f6573206e6f74206578697374000000000000000000000000600082015250565b6000613451601483612624565b915061345c8261341b565b602082019050919050565b6000602082019050818103600083015261348081613444565b9050919050565b600081905092915050565b60008190508160005260206000209050919050565b600081546134b481612e48565b6134be8186613487565b945060018216600081146134d957600181146134ea5761351d565b60ff1983168652818601935061351d565b6134f385613492565b60005b83811015613515578154818901526001820191506020810190506134f6565b838801955050505b50505092915050565b600061353282846134a7565b915081905092915050565b7f4552433732314d657461646174613a2055524920717565727920666f72206e6f60008201527f6e6578697374656e7420746f6b656e0000000000000000000000000000000000602082015250565b6000613599602f83612624565b91506135a48261353d565b604082019050919050565b600060208201905081810360008301526135c88161358c565b9050919050565b600081905092915050565b60006135e582612619565b6135ef81856135cf565b93506135ff818560208601612635565b80840191505092915050565b600061361782856135da565b915061362382846135da565b91508190509392505050565b7f4f776e61626c653a206e6577206f776e657220697320746865207a65726f206160008201527f6464726573730000000000000000000000000000000000000000000000000000602082015250565b600061368b602683612624565b91506136968261362f565b604082019050919050565b600060208201905081810360008301526136ba8161367e565b9050919050565b7f4552433732313a206f70657261746f7220717565727920666f72206e6f6e657860008201527f697374656e7420746f6b656e0000000000000000000000000000000000000000602082015250565b600061371d602c83612624565b9150613728826136c1565b604082019050919050565b6000602082019050818103600083015261374c81613710565b9050919050565b7f4552433732313a207472616e736665722066726f6d20696e636f72726563742060008201527f6f776e6572000000000000000000000000000000000000000000000000000000602082015250565b60006137af602583612624565b91506137ba82613753565b604082019050919050565b600060208201905081810360008301526137de816137a2565b9050919050565b7f4552433732313a207472616e7366657220746f20746865207a65726f2061646460008201527f7265737300000000000000000000000000000000000000000000000000000000602082015250565b6000613841602483612624565b915061384c826137e5565b604082019050919050565b6000602082019050818103600083015261387081613834565b9050919050565b6000613882826126d4565b915061388d836126d4565b9250828210156138a05761389f613182565b5b828203905092915050565b60006138b6826126d4565b91506138c1836126d4565b9250827fffffffffffffffffffffffffffffffffffffffffffffffffffffffffffffffff038211156138f6576138f5613182565b5b828201905092915050565b7f4552433732313a20617070726f766520746f2063616c6c657200000000000000600082015250565b6000613937601983612624565b915061394282613901565b602082019050919050565b600060208201905081810360008301526139668161392a565b9050919050565b7f4552433732313a207472616e7366657220746f206e6f6e20455243373231526560008201527f63656976657220696d706c656d656e7465720000000000000000000000000000602082015250565b60006139c9603283612624565b91506139d48261396d565b604082019050919050565b600060208201905081810360008301526139f8816139bc565b9050919050565b7f4e487b7100000000000000000000000000000000000000000000000000000000600052601260045260246000fd5b6000613a39826126d4565b9150613a44836126d4565b925082613a5457613a536139ff565b5b828204905092915050565b6000613a6a826126d4565b9150613a75836126d4565b925082613a8557613a846139ff565b5b828206905092915050565b600081519050919050565b600082825260208201905092915050565b6000613ab782613a90565b613ac18185613a9b565b9350613ad1818560208601612635565b613ada81612668565b840191505092915050565b6000608082019050613afa6000830187612769565b613b076020830186612769565b613b1460408301856127ff565b8181036060830152613b268184613aac565b905095945050505050565b600081519050613b408161258a565b92915050565b600060208284031215613b5c57613b5b612554565b5b6000613b6a84828501613b31565b91505092915050565b7f4e487b7100000000000000000000000000000000000000000000000000000000600052603160045260246000fd5b7f4552433732313a206d696e7420746f20746865207a65726f2061646472657373600082015250565b6000613bd8602083612624565b9150613be382613ba2565b602082019050919050565b60006020820190508181036000830152613c0781613bcb565b9050919050565b7f4552433732313a20746f6b656e20616c7265616479206d696e74656400000000600082015250565b6000613c44601c83612624565b9150613c4f82613c0e565b602082019050919050565b60006020820190508181036000830152613c7381613c37565b905091905056fea264697066735822122007efb55e729a34fbadfd0c9404a8197f450dd64f0070322543da3d2cf5695e6a64736f6c634300080d0033",
  "immutableReferences": {},
  "source": "// SPDX-License-Identifier: MIT\r\npragma solidity ^0.8.13;\r\n\r\nimport \"@openzeppelin/contracts/utils/Counters.sol\";\r\nimport \"@openzeppelin/contracts/access/Ownable.sol\";\r\nimport \"@openzeppelin/contracts/utils/math/SafeMath.sol\";\r\nimport \"@openzeppelin/contracts/token/ERC721/extensions/ERC721Enumerable.sol\";\r\n\r\ncontract NFTCollection is ERC721Enumerable, Ownable {\r\n    using SafeMath for uint256;\r\n    using Counters for Counters.Counter;\r\n\r\n    Counters.Counter private _tokenIds;\r\n\r\n    mapping(uint => string) private tokenCIDs;\r\n\r\n    constructor(\r\n        string memory name,\r\n        string memory symbol\r\n    ) ERC721(name, symbol) {}\r\n\r\n    function mintNFTs(uint _count, string[] memory _cids) public payable {\r\n        for (uint i = 0; i < _count; i++) {\r\n            _mintSingleNFT(_cids[i]);\r\n        }\r\n    }\r\n\r\n    function _mintSingleNFT(string memory _cid) private {\r\n        uint newTokenID = _tokenIds.current();\r\n        _safeMint(msg.sender, newTokenID);\r\n        tokenCIDs[newTokenID] = _cid;\r\n        _tokenIds.increment();\r\n    }\r\n\r\n    // Get CID (IPFS hash) of a specific NFT\r\n    function getTokenCID(uint _tokenId) public view returns (string memory) {\r\n        require(_exists(_tokenId), \"Token does not exist\");\r\n        return tokenCIDs[_tokenId];\r\n    }\r\n\r\n    function tokensOfOwner(\r\n        address _owner\r\n    ) external view returns (uint[] memory) {\r\n        uint tokenCount = balanceOf(_owner);\r\n        uint[] memory tokensId = new uint256[](tokenCount);\r\n\r\n        for (uint i = 0; i < tokenCount; i++) {\r\n            tokensId[i] = tokenOfOwnerByIndex(_owner, i);\r\n        }\r\n        return tokensId;\r\n    }\r\n\r\n    function retrieveOwnerOfCID(\r\n        string memory _cid\r\n    ) public view returns (address) {\r\n        uint256 supply = totalSupply();\r\n        for (uint256 tokenId = 0; tokenId < supply; tokenId++) {\r\n            if (\r\n                keccak256(bytes(tokenCIDs[tokenId])) == keccak256(bytes(_cid))\r\n            ) {\r\n                return ownerOf(tokenId);\r\n            }\r\n        }\r\n        return address(0);\r\n    }\r\n\r\n    function transferNFT(\r\n        address from,\r\n        address to,\r\n        uint _tokenId\r\n    ) public payable returns (bool) {\r\n        require(\r\n            _isApprovedOrOwner(from, _tokenId),\r\n            \"ERC721: transfer caller is not owner nor approved\"\r\n        );\r\n        safeTransferFrom(from, to, _tokenId);\r\n        return true;\r\n    }\r\n}\r\n",
  "sourcePath": "D:\\ethereum\\nft-contract\\contracts\\NFTCollection.sol",
  "compiler": {
    "name": "solc",
    "version": "0.8.13+commit.abaa5c0e.Emscripten.clang"
  },
  "schemaVersion": "3.4.16",
  "updatedAt": "2025-04-10T16:44:40.288Z",
  "devdoc": {
    "kind": "dev",
    "methods": {
      "approve(address,uint256)": {
        "details": "See {IERC721-approve}."
      },
      "balanceOf(address)": {
        "details": "See {IERC721-balanceOf}."
      },
      "getApproved(uint256)": {
        "details": "See {IERC721-getApproved}."
      },
      "isApprovedForAll(address,address)": {
        "details": "See {IERC721-isApprovedForAll}."
      },
      "name()": {
        "details": "See {IERC721Metadata-name}."
      },
      "owner()": {
        "details": "Returns the address of the current owner."
      },
      "ownerOf(uint256)": {
        "details": "See {IERC721-ownerOf}."
      },
      "renounceOwnership()": {
        "details": "Leaves the contract without owner. It will not be possible to call `onlyOwner` functions anymore. Can only be called by the current owner. NOTE: Renouncing ownership will leave the contract without an owner, thereby removing any functionality that is only available to the owner."
      },
      "safeTransferFrom(address,address,uint256)": {
        "details": "See {IERC721-safeTransferFrom}."
      },
      "safeTransferFrom(address,address,uint256,bytes)": {
        "details": "See {IERC721-safeTransferFrom}."
      },
      "setApprovalForAll(address,bool)": {
        "details": "See {IERC721-setApprovalForAll}."
      },
      "supportsInterface(bytes4)": {
        "details": "See {IERC165-supportsInterface}."
      },
      "symbol()": {
        "details": "See {IERC721Metadata-symbol}."
      },
      "tokenByIndex(uint256)": {
        "details": "See {IERC721Enumerable-tokenByIndex}."
      },
      "tokenOfOwnerByIndex(address,uint256)": {
        "details": "See {IERC721Enumerable-tokenOfOwnerByIndex}."
      },
      "tokenURI(uint256)": {
        "details": "See {IERC721Metadata-tokenURI}."
      },
      "totalSupply()": {
        "details": "See {IERC721Enumerable-totalSupply}."
      },
      "transferFrom(address,address,uint256)": {
        "details": "See {IERC721-transferFrom}."
      },
      "transferOwnership(address)": {
        "details": "Transfers ownership of the contract to a new account (`newOwner`). Can only be called by the current owner."
      }
    },
    "version": 1
  },
  "userdoc": {
    "kind": "user",
    "methods": {},
    "version": 1
  }
}